:100000000C9474020C949C020C949C020C949C0220
:100010000C949C020C949C020C949C020C94F0088E
:100020000C949C020C949C020C949C020C949C02D8
:100030000C949C020C949C020C949C020C949C02C8
:100040000C946F110C949C020C9451140C94831416
:100050000C949C020C949C020C949C020C949C02A8
:100060000C949C020C949C025265733A20455252A7
:100070004F52005265733A204F4B004552524F5237
:100080003A20556E6B6E6F776E2049522070726FFA
:10009000746F636F6C20726571756573746564004D
:1000A00020005265713A200050524F4E544F20307C
:1000B000303030203030366420303032362030302E
:1000C00030302030313535203030616120303031F2
:1000D0003620303031352030303136203030313537
:1000E000203030313620303034302030303136203E
:1000F000303031352030303136203030313520301D
:10010000303136203030313420303031362030300C
:1001100031342030303136203030313520303031FC
:1001200036203030343020303031362030303430EA
:1001300020303031362030303135203030313620EB
:1001400030303430203030313620303034302030D0
:1001500030313620303034302030303136203030BD
:1001600034302030303136203030343020303031AF
:100170003620303034302030303136203030313499
:10018000203030313620303034302030303136209D
:10019000303031352030303136203030313520307C
:1001A000303136203030313420303031362030306C
:1001B000343020303031362030303430203030315F
:1001C0003620303031342030303136203030343049
:1001D000203030313620303031352030303136204B
:1001E0003030343020303031362030303430203030
:1001F000303136203030343020303031362030301D
:10020000313420303031362030303135203030310B
:1002100036203036306220303135352030303535BB
:1002200020303031362030653538203031353520BA
:100230003030353520303031362030306161006665
:100240006F72206578616D706C653A003C49522090
:1002500070726F746F636F6C3E203C495220646112
:1002600074613E203C6E65775F6C696E653E00533D
:10027000657269616C20706F727420636F6D6D615F
:100280006E6420666F726D61743A00765F69727396
:10029000656E6465722076312E303A2053656E6447
:1002A000696E672043495220636F6465732C207721
:1002B0006869636820636F6D65732066726F6D2077
:1002C00053657269616C20706F72742E00455252D2
:1002D0004F523A2050726F746F636F6C207061726E
:1002E000616D6574657273206172652077726F6EDF
:1002F000672E20537570706F7274656420666F721C
:100300006D61743A203C44454320616464726573B6
:10031000733E203C44454320636F6D6D616E643EC7
:100320000020004552524F523A2050726F746F6352
:100330006F6C20706172616D65746572732061729B
:10034000652077726F6E672E20537570706F7274B0
:10035000656420666F726D61743A203C44454320A9
:10036000636F64653E004552524F523A2050726F9F
:10037000746F636F6C20706172616D657465727308
:10038000206172652077726F6E672E2053757070D2
:100390006F7274656420666F726D61743A203C44BC
:1003A0004543206465766963653E205B4445432090
:1003B0007375626465766963655D203C44454320DE
:1003C00066756E6374696F6E3E00200020004552B2
:1003D000524F523A2050726F746F636F6C2070618D
:1003E00072616D6574657273206172652077726FDA
:1003F0006E672E20537570706F7274656420666F1F
:10040000726D61743A203C48455820646174613EC5
:10041000203C444543206E626974733E203C444551
:1004200043207265706561743E00200020004552D3
:10043000524F523A2050726F746F636F6C2070612C
:1004400072616D6574657273206172652077726F79
:100450006E672E20537570706F7274656420666FBE
:10046000726D61743A203C48455820646174613E65
:10047000203C444543206E626974733E00200000B6
:100480000000080002010000030407000000000053
:10049000000000010204081020408001020408103E
:1004A00020010204081020040404040404040402CB
:1004B00002020202020303030303030000000023FD
:1004C000002600290000000000250028002B000065
:1004D000000000240027002A006364696E6F7073B7
:1004E0007578585B0000B31411241FBECFEFD8E01D
:1004F000DEBFCDBF11E0A0E0B1E0E0EEFFE302C05F
:1005000005900D92A83EB107D9F723E0A8EEB1E01F
:1005100001C01D92A536B207E1F714E0C8EED4E0A1
:1005200004C02297FE010E946E1AC63ED107C9F789
:100530000E9418180C94EE1F0C940000AF92BF920A
:10054000CF92DF92EF92FF920F931F93CF93DF939F
:1005500000D0CDB7DEB75C017B018A016901FB01E8
:100560001082118212821382FA01118210821A8281
:100570001982CE0101969F938F931F934F93FF9201
:100580006F9386E091E09F938F93F50181818F9324
:1005900080818F930E94841C0FB6F894DEBF0FBE3B
:1005A000CDBF029759F529813A81F5018481958162
:1005B0002817390719F5F801808191818197F0F4A6
:1005C000F701408151816281738120E130E084EC48
:1005D00092E00E9457166DE774E084EC92E00E946E
:1005E0003415F801608171814AE050E084EC92E0BA
:1005F0000E943F1681E0F601808309C06EE274E03C
:1006000084EC92E00E947015F601108280E00F9059
:100610000F90DF91CF911F910F91FF90EF90DF909E
:10062000CF90BF90AF9008958F929F92AF92BF925C
:10063000CF92DF92EF92FF920F931F93CF93DF93AE
:1006400000D0CDB7DEB74C015B017A016901FB0137
:100650001082118212821382FA0111821082F90132
:1006600010821A821982CE0101969F938F93DF9296
:100670002F93FF924F93BF926F938FE091E09F93E0
:100680008F93F40181818F9380818F930E94841CCA
:100690000FB6F894DEBF0FBECDBF0397D9F5298101
:1006A0003A81F401848195812817390799F5F7017A
:1006B00080819181819770F5F5014081518162813E
:1006C000738120E130E084EC92E00E9457166CE2E6
:1006D00074E084EC92E00E943415F701608171812E
:1006E0004AE050E084EC92E00E9437166AE274E03F
:1006F00084EC92E00E9434154AE050E060E070E043
:1007000084EC92E00E943F16F601108281E0F8012D
:10071000808309C06EEC73E084EC92E00E94701557
:10072000F801108280E00F900F90DF91CF911F9120
:100730000F91FF90EF90DF90CF90BF90AF909F9080
:100740008F9008954F925F926F927F928F929F92B7
:10075000AF92BF92CF92DF92EF92FF920F931F93CF
:10076000CF93DF9300D0CDB7DEB74C015B016A01B8
:10077000790128010FEF1FEFFB0111830083FA01BC
:1007800011830083F901118300831A8219829E016B
:100790002F5F3F4F39017F922F93FF92EF92DF92AD
:1007A0004F93BF926F938BE191E09F938F93F401EE
:1007B00081818F9380818F930E94841C0FB6F8945F
:1007C000DEBF0FBECDBF82309105D1F47F926F9214
:1007D000FF92EF92BF92AF928EE191E09F938F9341
:1007E000F40181818F9380818F930E94841CF60194
:1007F000118300830FB6F894DEBF0FBECDBF03C0D8
:10080000039709F045C029813A81F40184819581DB
:1008100028173907E9F5F501608171816F3F71058E
:1008200009F0B0F5F701808191818F3F910509F0C2
:1008300078F5F6018081918101968130914040F5F3
:100840004AE050E084EC92E00E9437166CEC73E0D2
:1008500084EC92E00E943415F601608171814AE0D7
:1008600050E084EC92E00E9437166AEC73E084EC6E
:1008700092E00E943415F701608171814AE050E0F6
:1008800084EC92E00E943F1681E0F201808309C06F
:1008900066E673E084EC92E00E947015F20110822B
:1008A00080E00F900F90DF91CF911F910F91FF90FB
:1008B000EF90DF90CF90BF90AF909F908F907F9000
:1008C0006F905F904F900895CF92DF92EF92FF92DA
:1008D0000F931F93CF93DF9300D0CDB7DEB77C018A
:1008E0008B016A018FEF9FEFFB01918380831A8256
:1008F0001982CE0101969F938F931F936F9381E28C
:1009000091E09F938F93F70181818F9380818F93E3
:100910000E94841C0FB6F894DEBF0FBECDBF0197B6
:10092000B9F429813A81F701848195812817390723
:1009300079F4F8016081718177FD0AC04AE050E0E6
:1009400084EC92E00E943F1681E0F601808309C0AA
:1009500063E273E084EC92E00E947015F60110826D
:1009600080E00F900F90DF91CF911F910F91FF903A
:10097000EF90DF90CF900895AF92BF92CF92DF9229
:10098000EF92FF920F931F93CF93DF9300D0CDB7D9
:10099000DEB76C017B018A0159018FEF9FEFFB01EC
:1009A00091838083FA01918380831A821982CE0118
:1009B00001969F938F931F934F93FF926F938EE1B6
:1009C00091E09F938F93F60181818F9380818F9324
:1009D0000E94841C0FB6F894DEBF0FBECDBF0297F5
:1009E00059F529813A81F6018481958128173907C3
:1009F00019F5F7016081718177FD1EC0F8018081D2
:100A0000918197FD19C04AE050E084EC92E00E9489
:100A1000641661E273E084EC92E00E943415F80100
:100A2000608171814AE050E084EC92E00E946A1695
:100A300081E0F501808309C06DEC72E084EC92E006
:100A40000E947015F501108280E00F900F90DF91E9
:100A5000CF911F910F91FF90EF90DF90CF90BF90BB
:100A6000AF900895CF92DF92EF92FF920F931F9372
:100A70006B017C01E1E2F0E060E070E0CB013197D6
:100A8000A9F08B019C01000F111F221F331FC7010A
:100A9000B6016170772788279927602B712B822BED
:100AA000932BF694E794D794C794E9CF1F910F91B5
:100AB000FF90EF90DF90CF90089526E040E052EC59
:100AC00061E070E084EC92E00E94EF136BE872E06A
:100AD00084EC92E00E9470156FE672E084EC92E084
:100AE0000E9470156CE472E084EC92E00E94701534
:100AF0006FE372E084EC92E00E94701568EA70E0A7
:100B000084EC92E00C9470158F929F92AF92BF92FA
:100B1000CF92DF92EF92FF920F931F93CF93DF93C9
:100B2000CDB7DEB76F970FB6F894DEBF0FBECDBF5F
:100B300084EC92E00E940C13181619060CF03DC3C9
:100B400040E264EC72E0CE0107960E94AE164AE0E5
:100B500064EC72E0CE0101960E94AE16198A1A8AE0
:100B60001B8A1C8A1E8E1D8E8FEF9FEF9C8F8B8F92
:100B70009A8F898F988F8F8B81E08F8FCE01079608
:100B80000E94B817CE0101960E94B81762EA70E081
:100B900084EC92E00E943415BE01695F7F4F84ECC3
:100BA00092E00E94571560EA70E084EC92E00E94A7
:100BB000341566E271E0CE0107960E9499178823EA
:100BC00061F0BE016F5F7F4F84EC92E00E9482155E
:100BD00069817A8121E040E013C06DE271E0CE01CD
:100BE00007960E949917882389F0BE016F5F7F4F97
:100BF00084EC92E00E94821569817A8121E041E0D3
:100C000088EE91E00E94190A8F8FC3C26BE371E0F6
:100C1000CE0107960E9499178823B9F09E01215EA4
:100C20003F4FAE01435E5F4FBE016F5E7F4FCE010F
:100C300001960E949E02882309F4ABC22D8D3E8D41
:100C400049895A896B897C8964C062E471E0CE016C
:100C500007960E949917882309F460C08E01015EEF
:100C60001F4F9E01295E3F4FAE01475E5F4FBE01A1
:100C7000655E7F4FCE0101960E94A203882309F48E
:100C800088C2898D9A8DCB8CDC8C97FF05C0C601FC
:100C9000809590959A8F898F0F89188D698D7A8D9F
:100CA000CB01AA2797FDA095BA2F6627782F892F09
:100CB0009A2F8827992748019924AA2497FCA09461
:100CC000BA2C540199248824682979298A299B29D6
:100CD000DD24EE24D7FCE094FE2C6C297D298E299E
:100CE0009F2900951095222717FD2095322F302F30
:100CF000222711270027602B712B822B932B698BC6
:100D00007A8B8B8B9C8B0E943205AB01BC0120E25D
:100D100030E088EE91E00E945E0D3BC265E471E038
:100D2000CE0107960E9499178823D9F09E01215E73
:100D30003F4FAE01435E5F4FBE016F5E7F4FCE01FE
:100D400001960E949E02882309F423C22D8D3E8DB8
:100D500049895A896B897C8988EE91E00E94DE0E70
:100D600018C26DE471E0CE0107960E94991788239E
:100D7000D9F09E01215E3F4FAE01435E5F4FBE0141
:100D80006F5E7F4FCE0101960E949E02882309F478
:100D900000C22D8D3E8D49895A896B897C8988EEE8
:100DA00091E00E94420FF5C165E571E0CE01079622
:100DB0000E9499178823B9F09E01215E3F4FAE0132
:100DC000435E5F4FBE016F5E7F4FCE0101960E9472
:100DD0009E02882309F4DDC12D8D3E8D49895A89F3
:100DE0006B897C8964C06DE571E0CE0107960E9435
:100DF0009917882309F460C08E01015E1F4F9E0180
:100E0000295E3F4FAE01475E5F4FBE01655E7F4F7B
:100E1000CE0101960E94A203882309F4BAC1898DEC
:100E20009A8DCB8CDC8C97FF05C0C6018095909580
:100E30009A8F898F0F89188D698D7A8DCB01AA279A
:100E400097FDA095BA2F6627782F892F9A2F88278C
:100E5000992748019924AA2497FCA094BA2C5401FC
:100E600099248824682979298A299B29DD24EE245C
:100E7000D7FCE094FE2C6C297D298E299F290095B2
:100E80001095222717FD2095322F302F222711276A
:100E90000027602B712B822B932B698B7A8B8B8B8A
:100EA0009C8B0E943205AB01BC0120E230E088EE51
:100EB00091E00E94BC0D6DC161E671E0CE01079624
:100EC0000E9499178823D9F09E01215E3F4FAE0101
:100ED000435E5F4FBE016F5E7F4FCE0101960E9461
:100EE0009E02882309F455C12D8D3E8D49895A896A
:100EF0006B897C8988EE91E00E94AF104AC16AE656
:100F000071E0CE0107960E949917882319F11D867A
:100F10001E861F86188A1E8A1D8A9E01215E3F4FEB
:100F2000AE014B5E5F4FBE01635F7F4FCE01019606
:100F30000E949E02882309F42CC12D893E894427F2
:100F400037FD4095542F6D857E8588EE91E00E9497
:100F50001D0E1FC168E771E0CE0107960E94991728
:100F6000882301F11D868E01015E1F4F9E01235FC4
:100F70003F4FAE01435E5F4FBE016F5E7F4FCE01BC
:100F800001960E941403882309F403C12D8D3E8D20
:100F900049895A896B897C890D8588EE91E00E9488
:100FA000F90CF7C060E871E0CE0107960E9499172E
:100FB0008823D9F09E01215E3F4FAE01435E5F4F13
:100FC000BE016F5E7F4FCE0101960E949E02882374
:100FD00009F4DFC02D8D3E8D49895A896B897C8942
:100FE00088EE91E00E94C80FD4C06CE871E0CE0199
:100FF00007960E9499178823D9F09E01215E3F4FE2
:10100000AE01435E5F4FBE016F5E7F4FCE01019622
:101010000E949E02882309F4BCC02D8D3E8D498913
:101020005A896B897C8988EE91E00E940411B1C0D5
:1010300068E971E0CE0107960E9499178823B1F004
:101040001E861D86AE01415E5F4FBE01635F7F4F0E
:10105000CE0101960E946404882309F49AC06D852C
:101060007E8588EE91E00E94CB0B93C063EA71E02D
:10107000CE0107960E9499178823D9F09E01215E20
:101080003F4FAE01435E5F4FBE016F5E7F4FCE01AB
:1010900001960E949E02882309F47BC02D8D3E8D0F
:1010A00049895A896B897C8988EE91E00E94A10C5C
:1010B00070C06CEA71E0CE0107960E9499178823F0
:1010C000D9F09E01215E3F4FAE01435E5F4FBE01EE
:1010D0006F5E7F4FCE0101960E949E02882309F425
:1010E00058C02D8D3E8D49895A896B897C8988EE3F
:1010F00091E00E9429104DC066EB71E0CE01079689
:101100000E9499178823E1F01E8A1D8A1E861D867B
:101110009E01215E3F4FAE01435F5F4FBE016B5E9C
:101120007F4FCE0101960E94BC04882391F14D852A
:101130005E856D897E8988EE91E00E949D1029C0B0
:101140006CEB71E0CE0107960E9499178823D1F0CD
:101150009E01215E3F4FAE01435E5F4FBE016F5E59
:101160007F4FCE0101960E949E02882391F02D8D23
:101170003E8D49895A896B897C8988EE91E00E946D
:10118000400C07C06BE770E084EC92E00E947015A1
:101190001F8E8F8D882319F063E770E002C068E628
:1011A00070E084EC92E00E947015CE0101960E94DE
:1011B000D616CE0107960E94D6166F960FB6F894F3
:1011C000DEBF0FBECDBFDF91CF911F910F91FF907A
:1011D000EF90DF90CF90BF90AF909F908F90089549
:1011E0001F920F920FB60F9211242F933F934F939C
:1011F0005F936F937F938F939F93AF93BF93EF937F
:10120000FF938091EA010E94E3122091EE01309158
:10121000EF012F5F3F4F3093EF012093EE0190914C
:10122000ED01953618F096E09093E9019091E9016F
:101230009430C9F128F4923069F09330D1F05EC057
:10124000953009F451C0963009F058C091E0909360
:10125000BA0251C0811152C02091EE013091EF01CC
:101260002436310508F442C01092BA021092ED0102
:101270001CC0813009F042C0E091ED0191E09E0F69
:101280009093ED01F0E02091EE013091EF01EE0F2F
:10129000FF1FE751FE4F308727831092EF01109216
:1012A000EE0194E029C0811117C0E091ED0191E0B9
:1012B0009E0F9093ED01F0E02091EE013091EF014F
:1012C000EE0FFF1FE751FE4F308727831092EF018B
:1012D0001092EE0193E010C02091EE013091EF01E9
:1012E0002536310558F007C0811108C01092EF0172
:1012F0001092EE0103C095E09093E9019091EC010A
:101300009923B9F081110AC08091EB01882321F063
:101310008091EB0161E009C02D9A0BC08091EB0137
:10132000882331F08091EB0160E00E94AD1201C092
:101330002D98FF91EF91BF91AF919F918F917F91E8
:101340006F915F914F913F912F910F900FBE0F9032
:101350001F90189590ED980F9A3058F09FEB980FCA
:10136000963038F09FE9980F81E0963018F080E0D1
:10137000089581E00895803239F0893029F091E0B4
:10138000811190E0892F089581E008950F931F93B4
:10139000CF93DF938C01F801C081D18188810E94B5
:1013A000BB09882329F02196F801D183C083F3CFAC
:1013B000DF91CF911F910F91089590ED980F9A3082
:1013C00068F09FEB980F963010F4875308959FE9CB
:1013D000980F963010F4875508950895892F089531
:1013E000FF920F931F93CF93DF93EC0188810E94AC
:1013F000DD09F82E89810E94DD09082F8A810E946B
:10140000DD09182F8B810E94DD092F2D30E0322F4E
:1014100022273295307F302B282B40E1149FC001CA
:101420001124822B932BDF91CF911F910F91FF906D
:1014300008954F925F926F927F928F929F92AF9298
:10144000BF92CF92DF92EF92FF920F931F93CF93B1
:10145000DF9300D0CDB7DEB78C016B01B42EA22E86
:101460007A836983E981FA818081882361F1CE01E1
:1014700001960E94C609E980FA80F70180810E94E6
:10148000AA09811102C080E0F5C0F70181810E94A4
:10149000AA098823C1F3F70182810E94AA0988233F
:1014A00091F3F70183810E94AA09882361F3F70170
:1014B00084810E94BB09882331F384E0E80EF11C8B
:1014C000FA82E982CFCFDA82C982CE0101960E94E8
:1014D000C609E980FA80C7010E94F009892B99F6B4
:1014E000F4E0EF0EF11CFA82E982CE0101960E942F
:1014F000C609E980FA80C7010E94F009BC0180E0BA
:1015000090E00E94261921E339E047E75EE30E945C
:10151000B4199B01AC0160E074E284E799E40E9495
:101520008D180E94F5186B0180E090E00E9426194A
:101530009B01AC0160E070E080E89FE30E948D18A1
:1015400020E034E244E759E40E94B41920E030E09E
:1015500040E05FE30E9429180E94F5184B01C60184
:1015600068EE73E00E94171A6B0124E0E20EF11C92
:10157000FA82E982CE0101960E94C609E980FA80CA
:10158000C7010E94F0093C0184E0E80EF11CFA82D8
:10159000E982CE0101960E94C60949805A80C201A3
:1015A0000E94F009E4E04E0E511C5A824982AA20A2
:1015B00081F0B11003C0662019F004C0882311F037
:1015C0007C0101C07301FF24EE0CFF1CA12CB12C87
:1015D0000AC07724B11002C07301F6CF7C01FF244A
:1015E000EE0CFF1C5301612C712C6A147B046CF40B
:1015F000CE0101960E94C609FFEF6F1A7F0A89810A
:101600009A8104969A838983F0CFB601C8010E941B
:101610004D0BC12CD12C9924CE14DF0454F5CE01EE
:1016200001960E94C60989819A81C0FE0DC00E9460
:10163000F009889DB001899D700D989D700D112451
:10164000C8010E94BD0B0CC00E94F009889DB0012A
:10165000899D700D989D700D1124C8010E94AF0BDB
:1016600089819A8104969A8389832FEFC21AD20ABC
:10167000D3CF81E00F900F90DF91CF911F910F9109
:10168000FF90EF90DF90CF90BF90AF909F908F90A2
:101690007F906F905F904F900895CF93DF93EB0111
:1016A0001092700061E083E00E94741260E083E0B9
:1016B0000E94AD129E01442737FD4095542F60E4EF
:1016C0007FE180E090E00E944D1A81E08093B000BD
:1016D00089E08093B1002093B3008BEA289F212DED
:1016E000112426952093B400DF91CF9108958F9215
:1016F0009F92AF92BF92CF92DF92EF92FF926A01D8
:101700007B01453051056105710500F10E94C5114D
:101710004B015C0184E0C81AD108E108F108C80C4B
:10172000D91CEA1CFB1CC814D904EA04FB0438F4D5
:101730000E94C51186169706A806B906C8F30E942E
:10174000C5116C157D058E059F05C8F3FF90EF90C0
:10175000DF90CF90BF90AF909F908F900895209191
:10176000B00020622093B0006115710529F0AB0133
:1017700060E070E00C94770B08952091B0002F7D0D
:101780002093B0006115710529F0AB0160E070E0B5
:101790000C94770B0895AF92BF92CF92DF92EF92A5
:1017A000FF920F931F93CF93DF93EC015B0166E2EF
:1017B00070E00E944D0B60E672E2CE010E94AF0B1A
:1017C00064E971E1CE010E94BD0B0AE110E0C12C79
:1017D000D12CE12C32E0F32E64EF71E0CE010E94B7
:1017E000AF0BD701C601807C9E7EA772B270892B99
:1017F0008A2B8B2B19F068E572E002C064EA76E070
:10180000CE010E94BD0BF694E794D794C794015083
:10181000110911F7AA0CBB1C0FE010E064EF71E096
:10182000CE010E94AF0BB7FE03C068E572E002C0B4
:1018300064EA76E0CE010E94BD0BAA0CBB1C0150ED
:10184000110961F764EF71E0CE010E94AF0B64EA09
:1018500076E0CE010E94BD0B64EF71E0CE010E94E4
:10186000AF0B60E070E0CE01DF91CF911F910F913F
:10187000FF90EF90DF90CF90BF90AF900C94BD0B96
:101880008F929F92AF92BF92CF92DF92EF92FF9290
:10189000CF93DF93EC014A015B01790166E270E0CE
:1018A0000E944D0B6CE271E0CE010E94AF0B6EEE18
:1018B00072E0CE010E94BD0BC7010197C12CD12C53
:1018C0007601C39404C0CC0CDD1CEE1CFF1C8A9571
:1018D000D2F7C114D104E104F104F9F0D701C60133
:1018E00088219921AA21BB216CE271E0892B8A2BE6
:1018F0008B2B31F0CE010E94AF0B68E077E005C082
:10190000CE010E94AF0B6EEE72E0CE010E94BD0BC5
:10191000F694E794D794C794DCCF6CE271E0CE01E3
:101920000E94AF0B60E070E0CE01DF91CF91FF909D
:10193000EF90DF90CF90BF90AF909F908F900C94DE
:10194000BD0B8F929F92AF92BF92CF92DF92EF9298
:10195000FF92CF93DF93EC014A015B01790168E3C9
:1019600070E00E944D0B60E971E0CE010E94AF0B68
:1019700064ED77E1CE010E94BD0BC7010197C12C38
:10198000D12C7601C39404C0CC0CDD1CEE1CFF1CD2
:101990008A95D2F7C114D104E104F104F9F0D7011A
:1019A000C60188219921AA21BB2160E971E0892B18
:1019B0008A2B8B2B31F0CE010E94AF0B64EA76E0CC
:1019C00005C0CE010E94AF0B60EF7AE0CE010E940D
:1019D000BD0BF694E794D794C794DCCFDF91CF91F9
:1019E000FF90EF90DF90CF90BF90AF909F908F903F
:1019F00008958F929F92AF92BF92CF92DF92EF9213
:101A0000FF920F93CF93DF93EC014A015B017901C1
:101A100066E270E00E944D0B01110AC060E47FE1B4
:101A2000CE010E94AF0B60EA7FE0CE010E94BD0BA9
:101A3000C7010197C12CD12C7601C39404C0CC0CF2
:101A4000DD1CEE1CFF1C8A95D2F7C114D104E10401
:101A5000F104F9F0D701C60188219921AA21BB21FF
:101A600068E572E0892B8A2B8B2B31F0CE010E9426
:101A7000AF0B60E476E005C0CE010E94AF0B66E2DA
:101A800072E0CE010E94BD0BF694E794D794C79400
:101A9000DCCF68E572E0CE010E94AF0B60E070E041
:101AA000CE01DF91CF910F91FF90EF90DF90CF901B
:101AB000BF90AF909F908F900C94BD0B8F929F9290
:101AC000AF92BF92CF92DF92EF92FF92CF93DF93CC
:101AD000EC014A015B01790166E270E00E944D0B66
:101AE00060E47FE1CE010E94AF0B60EA7FE0CE01AF
:101AF0000E94BD0B68E572E0CE010E94AF0BC701EA
:101B00000197C12CD12C7601C39404C0CC0CDD1CF0
:101B1000EE1CFF1C8A95D2F7C114D104E104F10434
:101B2000E1F0D701C60188219921AA21BB21892B87
:101B30008A2B8B2B19F060E476E002C066E272E03B
:101B4000CE010E94BD0B68E572E0CE010E94AF0B92
:101B5000F694E794D794C794DFCF60E070E0CE01AD
:101B6000DF91CF91FF90EF90DF90CF90BF90AF903B
:101B70009F908F900C94BD0B8F929F92AF92BF92CB
:101B8000CF92DF92EF92FF92CF93DF93EC014A0165
:101B90005B01790166E270E00E944D0B68E273E23E
:101BA000CE010E94AF0B64E971E1CE010E94BD0B32
:101BB000C7010197C12CD12C7601C39404C0CC0C71
:101BC000DD1CEE1CFF1C8A95D2F7C114D104E10480
:101BD000F104F9F0D701C60188219921AA21BB217E
:101BE00060E372E0892B8A2B8B2B31F0CE010E94AF
:101BF000AF0B6AE976E005C0CE010E94AF0B60E34F
:101C000072E0CE010E94BD0BF694E794D794C7947E
:101C1000DCCF60E372E0CE010E94AF0B60E070E0C9
:101C2000CE01DF91CF91FF90EF90DF90CF90BF90EA
:101C3000AF909F908F900C94BD0B6F927F928F927C
:101C40009F92AF92BF92CF92DF92EF92FF920F934B
:101C50001F93CF93DF9300D000D0CDB7DEB73C0108
:101C60007B0163E270E029833A834B835C830E94AB
:101C70004D0B6EEA7DE0C3010E94AF0B66ED76E08E
:101C8000C3010E94BD0B00E110E0812C70E8972E8B
:101C9000A12CB12C6701E12CF12C5C814B813A81A4
:101CA000298166EF71E0C30129833A834B835C830A
:101CB0000E94AF0BD501C4018C219D21AE21BF2113
:101CC00029813A814B815C81892B8A2B8B2B51F0A6
:101CD0006CED74E0C3010E94BD0B29813A814B81F8
:101CE0005C810DC060E971E0C30129833A834B83B5
:101CF0005C830E94BD0B5C814B813A812981B69443
:101D0000A794979487940150110959F600E210E0C6
:101D1000C12CD12CE12C90E8F92E66EF71E0C301C3
:101D200029833A834B835C830E94AF0B29813A81DC
:101D30004B815C81D701C60182239323A423B52361
:101D4000892B8A2B8B2B51F06CED74E0C3010E9420
:101D5000BD0B29813A814B815C810DC060E971E046
:101D6000C30129833A834B835C830E94BD0B5C8152
:101D70004B813A812981F694E794D794C794015016
:101D8000110959F666EF71E0C3010E94AF0B60E0E4
:101D900070E0C3010F900F900F900F90DF91CF91E3
:101DA0001F910F91FF90EF90DF90CF90BF90AF9079
:101DB0009F908F907F906F900C94BD0B8F929F920D
:101DC000AF92BF92CF92DF92EF92FF92CF93DF93C9
:101DD000EC014A015B01790164E270E00E944D0B65
:101DE00069E773E0CE010E94AF0B69E773E0CE01B3
:101DF0000E94BD0B69E773E0CE010E94AF0BC701E3
:101E00000197C12CD12C7601C39404C0CC0CDD1CED
:101E1000EE1CFF1C8A95D2F7C114D104E104F10431
:101E200011F1D701C60188219921AA21BB2169E7B7
:101E300073E0892B8A2B8B2B49F0CE010E94BD0BBE
:101E400069E773E0CE010E94AF0B08C0CE010E948B
:101E5000AF0B69E773E0CE010E94BD0BF694E794E7
:101E6000D794C794D9CF60E070E0CE01DF91CF91D5
:101E7000FF90EF90DF90CF90BF90AF909F908F90AA
:101E80000C94BD0B4F925F926F927F928F929F92B4
:101E9000AF92BF92CF92DF92EF92FF920F931F9378
:101EA000CF93DF93EC012A013B01890164E270E0EA
:101EB0000E944D0B6AE67AE0CE010E94AF0B69E703
:101EC00073E0CE010E94BD0B6CEB71E0CE010E946D
:101ED000AF0B6CEB71E0CE010E94BD0B01501109FC
:101EE000C12CD12C7601C39404C0CC0CDD1CEE1C9B
:101EF000FF1C0A95D2F7812C912C54018394C114B4
:101F0000D104E104F10479F184E088169104A1047C
:101F1000B10419F408E713E002C00CEB11E0D7019B
:101F2000C60184219521A621B721B801892B8A2BCE
:101F30008B2B41F0CE010E94AF0BB801CE010E9465
:101F4000BD0B07C0CE010E94BD0BB801CE010E949F
:101F5000AF0B8FEF881A980AA80AB80AF694E7948C
:101F6000D794C794CCCF60E070E0CE01DF91CF91E1
:101F70001F910F91FF90EF90DF90CF90BF90AF90A7
:101F80009F908F907F906F905F904F900C94BD0BBF
:101F90008F929F92AF92BF92CF92DF92EF92FF9279
:101FA000CF93DF93EC014A015B01790166E270E0B7
:101FB0000E944D0B68E873E1CE010E94AF0B68E808
:101FC00073E1CE010E94BD0BC7010197C12CD12C3A
:101FD0007601C39404C0CC0CDD1CEE1CFF1C8A955A
:101FE000D2F7C114D104E104F104F9F0D701C6011C
:101FF00088219921AA21BB2160E372E0892B8A2BD9
:102000008B2B31F0CE010E94AF0B60E476E005C06F
:10201000CE010E94AF0B60E372E0CE010E94BD0BC7
:10202000F694E794D794C794DCCF60E372E0CE01D6
:102030000E94AF0B60E070E0CE01DF91CF91FF9086
:10204000EF90DF90CF90BF90AF909F908F900C94C7
:10205000BD0B4F925F926F927F928F929F92AF9241
:10206000BF92CF92DF92EF92FF920F931F93CF9385
:10207000DF93EC012A013B01890166E270E00E94D6
:102080004D0B01501109812C912C5401839404C0F3
:10209000880C991CAA1CBB1C0A95D2F703E010E01F
:1020A00075016401C114D104E104F104F9F0D70110
:1020B000C60184219521A621B72165EF70E0892B07
:1020C0008A2B8B2B31F0CE010E94AF0B6DE077E0B5
:1020D00005C0CE010E94AF0B6BE173E0CE010E9400
:1020E000BD0BF694E794D794C794DCCF65EF70E00E
:1020F000CE010E94AF0B6BE173E0CE010E94BD0BDD
:1021000068E270E080E090E00E94E811409483E093
:1021100058260150110921F6DF91CF911F910F919F
:10212000FF90EF90DF90CF90BF90AF909F908F90F7
:102130007F906F905F904F900895440F551F440F0C
:10214000551F426020E030E0362F330F330F422B13
:10215000532B60E070E02FE030E00C9429108F9258
:102160009F92AF92BF92CF92DF92EF92FF92CF9366
:10217000DF93EC014A015B01790168E270E00E94A3
:102180004D0B60E679E0CE010E94AF0B68E572E08E
:10219000CE010E94BD0BC7010197C12CD12C760145
:1021A000C39404C0CC0CDD1CEE1CFF1C8A95D2F736
:1021B000C114D104E104F104E1F0D701C601882182
:1021C0009921AA21BB21892B8A2B8B2B19F060EB3B
:1021D00074E002C068E572E0CE010E94AF0B68E5D2
:1021E00072E0CE010E94BD0BF694E794D794C79499
:1021F000DFCFDF91CF91FF90EF90DF90CF90BF9036
:10220000AF909F908F9008958F929F92AF92BF92C0
:10221000CF92DF92EF92FF92CF93DF93EC014A01CE
:102220005B01790166E270E00E944D0B6EEE72E098
:10223000CE010E94AF0B6EEE72E0CE010E94BD0B8C
:1022400062E27BE0CE010E94AF0B62E27BE0CE0156
:102250000E94BD0BC7010197C12CD12C7601C394FC
:1022600004C0CC0CDD1CEE1CFF1C8A95D2F7C114F7
:10227000D104E104F104F9F0D701C60188219921C4
:10228000AA21BB216EEE72E0892B8A2B8B2B31F0B9
:10229000CE010E94AF0B66E678E005C0CE010E9439
:1022A000AF0B6EEE72E0CE010E94BD0BF694E79488
:1022B000D794C794DCCF6EEE72E0CE010E94AF0BD4
:1022C0006EEE72E0CE01DF91CF91FF90EF90DF9044
:1022D000CF90BF90AF909F908F900C94BD0B1F92AA
:1022E0000F920FB60F9211242F933F938F939F93CA
:1022F000AF93BF938091BC029091BD02A091BE02AA
:10230000B091BF023091BB0223E0230F2D3720F4A0
:102310000196A11DB11D05C026E8230F0296A11D3F
:10232000B11D2093BB028093BC029093BD02A09389
:10233000BE02B093BF028091C0029091C102A091F1
:10234000C202B091C3020196A11DB11D8093C002CB
:102350009093C102A093C202B093C302BF91AF9108
:102360009F918F913F912F910F900FBE0F901F90D3
:1023700018952FB7F8946091BC027091BD028091BE
:10238000BE029091BF022FBF08953FB7F89480918D
:10239000C0029091C102A091C202B091C30226B5C1
:1023A000A89B05C02F3F19F00196A11DB11D3FBF8D
:1023B0006627782F892F9A2F620F711D811D911D1D
:1023C00042E0660F771F881F991F4A95D1F708953D
:1023D000CF92DF92EF92FF92CF93DF936B017C015C
:1023E0000E94C511EB01C114D104E104F10489F08C
:1023F0000E9427180E94C5116C1B7D0B683E73401C
:1024000090F381E0C81AD108E108F108C851DC4F07
:10241000EACFDF91CF91FF90EF90DF90CF900895BA
:10242000789484B5826084BD84B5816084BD85B5AF
:10243000826085BD85B5816085BDEEE6F0E0808176
:1024400081608083E1E8F0E0108280818260808397
:10245000808181608083E0E8F0E08081816080831A
:10246000E1EBF0E0808184608083E0EBF0E080814C
:1024700081608083EAE7F0E08081846080838081EE
:102480008260808380818160808380818068808396
:102490001092C1000895833081F028F4813099F0C2
:1024A0008230A1F008958730A9F08830B9F08430E7
:1024B000D1F4809180008F7D03C0809180008F7760
:1024C00080938000089584B58F7702C084B58F7D96
:1024D00084BD08958091B0008F7703C08091B000D3
:1024E0008F7D8093B0000895CF93DF9390E0FC013F
:1024F000ED56FB4F2491FC01E955FB4F8491882355
:1025000049F190E0880F991FFC01E153FB4FA59121
:10251000B4918B539B4FFC01C591D4919FB761112E
:1025200008C0F8948C91209582238C938881822313
:102530000AC0623051F4F8948C91322F3095832385
:102540008C938881822B888304C0F8948C91822B91
:102550008C939FBFDF91CF9108950F931F93CF93DB
:10256000DF931F92CDB7DEB7282F30E0F901E15895
:10257000FB4F8491F901ED56FB4F1491F901E95598
:10258000FB4F04910023C9F0882321F069830E9446
:102590004B126981E02FF0E0EE0FFF1FEB53FB4F72
:1025A000A591B4919FB7F8948C91611103C01095D7
:1025B000812301C0812B8C939FBF0F90DF91CF911E
:1025C0001F910F910895CF93DF93282F30E0F901E9
:1025D000E158FB4F8491F901ED56FB4FD491F9017D
:1025E000E955FB4FC491CC2391F081110E944B120D
:1025F000EC2FF0E0EE0FFF1FE554FB4FA591B491D7
:102600002C912D2381E090E021F480E002C080E055
:1026100090E0DF91CF910895FC01818D228D90E0B3
:10262000805C9F4F821B91098F7399270895FC014D
:10263000918D828D981731F0828DE80FF11D858D77
:1026400090E008958FEF9FEF0895FC01918D828DAA
:10265000981761F0828DDF01A80FB11D5D968C91F6
:10266000928D9F5F9F73928F90E008958FEF9FEF01
:10267000089589EA94E1892B49F080E090E0892B64
:1026800029F00E94A91481110C9400000895FC0106
:10269000848DDF01A80FB11DA35ABF4F2C91848DEB
:1026A00090E001968F739927848FA689B7892C9320
:1026B000A089B1898C9180648C93938D848D9813BB
:1026C00006C00288F389E02D80818F7D8083089584
:1026D000CF93DF93EC01888D8823C9F0EA89FB89C9
:1026E000808185FD05C0A889B9898C9186FD0FC0C0
:1026F0000FB607FCF5CF808185FFF2CFA889B98995
:102700008C9185FFEDCFCE010E944713E7CFDF917B
:10271000CF910895CF92DF92FF920F931F93CF93A3
:10272000DF931F92CDB7DEB76C0181E0D6015896DA
:102730008C9358975B969C915B975C968C915C9779
:10274000981307C05096ED91FC915197808185FDBB
:102750002EC0F601038D10E00F5F1F4F0F7311277E
:10276000F02EF601848DF81211C00FB607FCF9CFD8
:10277000D6015096ED91FC915197808185FFF1CF64
:10278000C60169830E9447136981EBCF838DE80FEF
:10279000F11DE35AFF4F6083D6015B960C935B9764
:1027A0005296ED91FC915397808180620CC0D601C6
:1027B0005696ED91FC91579760835096ED91FC9160
:1027C000519780818064808381E090E00F90DF9159
:1027D000CF911F910F91FF90DF90CF900895BF92FE
:1027E000CF92DF92EF92FF92CF93DF93EC016A01D9
:1027F0007B01B22EE889F98982E08083411581EE60
:10280000580761057105A1F060E079E08DE390E083
:10281000A70196010E942B1A215031094109510943
:102820005695479537952795211580E1380798F0FB
:10283000E889F989108260E874E88EE190E0A701E8
:1028400096010E942B1A21503109410951095695D0
:10285000479537952795EC85FD853083EE85FF8577
:102860002083188EEC89FD89B082EA89FB898081FA
:1028700080618083EA89FB89808188608083EA891E
:10288000FB89808180688083EA89FB8980818F7DD4
:102890008083DF91CF91FF90EF90DF90CF90BF903A
:1028A00008951F920F920FB60F9211242F938F93BA
:1028B0009F93EF93FF93E091D402F091D502808132
:1028C000E091DA02F091DB0282FD12C090818091EA
:1028D000DD028F5F8F732091DE02821751F0E0914D
:1028E000DD02F0E0EC53FD4F958F8093DD0201C0D7
:1028F0008081FF91EF919F918F912F910F900FBE4B
:102900000F901F9018951F920F920FB60F921124DF
:102910002F933F934F935F936F937F938F939F93E7
:10292000AF93BF93EF93FF9384EC92E00E94471321
:10293000FF91EF91BF91AF919F918F917F916F9197
:102940005F914F913F912F910F900FBE0F901F906D
:10295000189584EC92E00E940C1321E0892B09F475
:1029600020E0822F08951092C7021092C60288EECE
:1029700093E0A0E0B0E08093C8029093C902A093D6
:10298000CA02B093CB028AEC91E09093C502809387
:10299000C40285EC90E09093D1028093D00284EC45
:1029A00090E09093D3028093D20280EC90E09093D9
:1029B000D5028093D40281EC90E09093D70280936B
:1029C000D60282EC90E09093D9028093D80286ECF4
:1029D00090E09093DB028093DA021092DD02109275
:1029E000DE021092DF021092E0020895CF92DF9291
:1029F000EF92FF920F931F93CF93DF937C016A01B5
:102A0000EB0100E010E00C151D0571F06991D70194
:102A1000ED91FC910190F081E02DC7010995892B82
:102A200019F00F5F1F4FEFCFC801DF91CF911F91BA
:102A30000F91FF90EF90DF90CF9008956115710591
:102A400081F0DB010D900020E9F7AD014150510903
:102A5000461B570BDC01ED91FC910280F381E02DC8
:102A6000099480E090E00895EF92FF920F931F93F6
:102A7000CF93DF938C017B01C0E0D0E0F701EC0F36
:102A8000FD1F6491662359F0F801A081B181ED9199
:102A9000FC91C8010995892B11F02196EFCFCE0149
:102AA000DF91CF911F910F91FF90EF900895DC017E
:102AB000ED91FC91DB0114964D915C9115976D9110
:102AC0007C910280F381E02D0994DC01ED91FC9171
:102AD0000190F081E02D099466ED71E00C941E15D3
:102AE0000F931F93CF93DF93EC010E9434158C0159
:102AF000CE010E946C15800F911FDF91CF911F9125
:102B00000F9108950F931F93CF93DF93EC010E94D1
:102B100057158C01CE010E946C15800F911FDF911B
:102B2000CF911F910F9108958F929F92AF92BF9274
:102B3000CF92DF92EF92FF920F931F93CF93DF9389
:102B4000CDB7DEB7A1970FB6F894DEBF0FBECDBFED
:102B50007C01C42EE52FCB01D22E19A221E02D1528
:102B600010F02AE0D22E8E010F5D1F4F8D2C912C7C
:102B7000A12CB12C6C2D7E2FA50194010E942B1A43
:102B80008C2DD29E80191124015011098A3014F421
:102B9000805D01C0895CF801808321153105410504
:102BA000510521F0C22EE32FCA01E4CFB801C701BD
:102BB0000E941E15A1960FB6F894DEBF0FBECDBFC2
:102BC000DF91CF911F910F91FF90EF90DF90CF9009
:102BD000BF90AF909F908F900895CF92DF92EF9229
:102BE000FF920F931F93CF93DF93EC016A017B0158
:102BF0002115310579F4E881F9810190F081E02D0A
:102C0000642FDF91CF911F910F91FF90EF90DF9094
:102C1000CF9009942A303105E9F477FF1AC06DE2AC
:102C20000E9465158C0144275527BA014C195D098E
:102C30006E097F092AE0CE010E949415800F911F32
:102C4000DF91CF911F910F91FF90EF90DF90CF9088
:102C500008952AE0B701A601CE01DF91CF911F911F
:102C60000F91FF90EF90DF90CF900C9494159A0104
:102C7000AB01662757FD6095762F0C94ED150F93E9
:102C80001F93CF93DF93EC019A01AB01662757FDA9
:102C90006095762F0E94ED158C01CE010E946C1577
:102CA000800F911FDF91CF911F910F9108952115F2
:102CB000310541F4DC01ED91FC910190F081E02DB2
:102CC000642F09940C9494159A01AB0160E070E0B4
:102CD0000C9457160F931F93CF93DF93EC019A0137
:102CE000AB0160E070E00E9457168C01CE010E949B
:102CF0006C15800F911FDF91CF911F910F91089557
:102D00000F931F93CF93DF93EC010E94B911688753
:102D100079878A879B87E881F9810680F781E02D92
:102D2000CE01099597FF15C00E94B9110885198534
:102D30002A853B85601B710B820B930B0C811D81D7
:102D40002E813F81601771078207930720F38FEF71
:102D50009FEFDF91CF911F910F910895EF92FF9216
:102D60000F931F93CF93DF93EC018B01E42E68ED5B
:102D700071E00E944417C8010E948016FF24E7FCFE
:102D8000F09497FD0BC08E159F0541F0682FCE0182
:102D90000E948617C8010E948016F3CFCE01DF91F2
:102DA000CF911F910F91FF90EF900895FC018081CA
:102DB00091810C940A1BCF93DF93EC018881998158
:102DC000009711F00E940A1B198218821D821C8232
:102DD0001B821A82DF91CF9108950F931F93CF9397
:102DE000DF93EC018B016F5F7F4F888199810E9497
:102DF000991B009731F0998388831B830A8381E0B4
:102E000001C080E0DF91CF911F910F910895CF9382
:102E1000DF93EC0188819981892B29F08A819B813C
:102E20008617970760F4CE010E94ED16882341F0C3
:102E30008C819D81892B19F4E881F981108281E0D0
:102E4000DF91CF910895EF92FF920F931F93CF934D
:102E5000DF93EC017B018A01BA010E9407178111FF
:102E600004C0CE010E94DB1607C01D830C83B7018E
:102E7000888199810E947D1CCE01DF91CF911F91A5
:102E80000F91FF90EF900895FC0111821082138240
:102E90001282158214826115710559F0FB010190AF
:102EA0000020E9F7AF0141505109461B570B0C9424
:102EB00023170895EF92FF920F931F93CF93DF9301
:102EC000EC017B010C811D816115710511F480E01D
:102ED00016C04115510591F0040F151FB8010E944D
:102EE00007178823A1F3288139818C819D81B7013F
:102EF000820F931F0E947D1C1D830C8381E0DF9154
:102F0000CF911F910F91FF90EF900895CF93DF9392
:102F100000D0CDB7DEB769831A8241E050E0BE0130
:102F20006F5F7F4F0E945A170F900F90DF91CF91E4
:102F30000895FC0124813581232B31F421E06115B2
:102F40007105A1F0FB0108C0FC0180819181611530
:102F5000710531F421E0FC018081882339F005C03E
:102F60000E94741C21E0892B09F020E0822F089533
:102F7000AF92BF92CF92DF92EF92FF920F931F9387
:102F8000CF93DF937C01DC01CD90DC901197C114CD
:102F9000D10409F441C01496CD91DC911597209786
:102FA000D9F156018501BFEFAB1ABB0AF801808148
:102FB000992787FD90950E94631C892B99F721978B
:102FC000CC0DDD1D8881992787FD90950E94631C9B
:102FD000892B91F4AE014F5F5F4F401B510BD7011E
:102FE00015965C934E931497C016D10650F4B80111
:102FF000C6010E946B1C05C0C017D10758F321976A
:10300000E1CFD701ED91FC91119714968D919C9190
:103010001597E80FF91F1082DF91CF911F910F9143
:10302000FF90EF90DF90CF90BF90AF9008950895FC
:103030000E9410120E9417180E945D05C9E3D3E197
:103040000E9484052097E1F30E943913F9CF089577
:103050005058BB27AA270ED04DC13ED130F043D1E6
:1030600020F031F49F3F11F41EF433C10EF4E095CB
:10307000E7FB29C1E92F4FD180F3BA176207730725
:103080008407950718F071F49EF567C10EF4E0957A
:103090000B2EBA2FA02D0B01B90190010C01CA0112
:1030A000A0011124FF27591B99F0593F50F4503EBD
:1030B00068F11A16F040A22F232F342F4427585FAF
:1030C000F3CF469537952795A795F0405395C9F7C7
:1030D0007EF41F16BA0B620B730B840BBAF091507F
:1030E000A1F0FF0FBB1F661F771F881FC2F70EC01E
:1030F000BA0F621F731F841F48F4879577956795F1
:10310000B795F7959E3F08F0B3CF9395880F08F0D9
:103110009927EE0F9795879508950CD0EBC0E3D0D3
:1031200040F0DAD030F021F45F3F19F0CCC05111FB
:1031300015C1CFC0F0D098F39923C9F35523B1F34B
:10314000951B550BBB27AA2762177307840738F016
:103150009F5F5F4F220F331F441FAA1FA9F333D075
:103160000E2E3AF0E0E830D091505040E695001C29
:10317000CAF729D0FE2F27D0660F771F881FBB1FE5
:10318000261737074807AB07B0E809F0BB0B802DBF
:10319000BF01FF2793585F4F2AF09E3F510568F00B
:1031A00092C0DCC05F3FECF3983EDCF386957795E8
:1031B0006795B795F7959F5FC9F7880F911D96950D
:1031C000879597F90895E1E0660F771F881FBB1F69
:1031D000621773078407BA0720F0621B730B840B16
:1031E000BA0BEE1F88F7E095089504D06894B111EA
:1031F000B5C0089598D088F09F5790F0B92F9927BF
:10320000B751A0F0D1F0660F771F881F991F1AF0F1
:10321000BA95C9F712C0B13081F09FD0B1E00895DE
:103220009CC0672F782F8827B85F39F0B93FCCF35F
:10323000869577956795B395D9F73EF490958095E7
:10324000709561957F4F8F4F9F4F0895E89409C007
:1032500097FB3EF490958095709561957F4F8F4FC9
:103260009F4F9923A9F0F92F96E9BB279395F695DF
:10327000879577956795B795F111F8CFFAF4BB0F5D
:1032800011F460FF1BC06F5F7F4F8F4F9F4F16C0C1
:10329000882311F096E911C0772321F09EE8872F4B
:1032A000762F05C0662371F096E8862F70E060E007
:1032B0002AF09A95660F771F881FDAF7880F969580
:1032C000879597F9089597F99F6780E870E060E027
:1032D00008959FEF80EC089500240A9416161706AF
:1032E00018060906089500240A94121613061406F7
:1032F00005060895092E0394000C11F4882352F05A
:10330000BB0F40F4BF2B11F460FF04C06F5F7F4F11
:103310008F4F9F4F089557FD9058440F551F59F0F8
:103320005F3F71F04795880F97FB991F61F09F3FB2
:1033300079F087950895121613061406551FF2CFDB
:103340004695F1DF08C0161617061806991FF1CF2B
:1033500086957105610508940895E894BB27662752
:103360007727CB0197F908950BD0C4CFB5DF28F0AC
:10337000BADF18F0952309F0A6CFABCF1124EECF1A
:10338000CADFA0F3959FD1F3950F50E0551F629FC0
:10339000F001729FBB27F00DB11D639FAA27F00DAE
:1033A000B11DAA1F649F6627B00DA11D661F829FD5
:1033B0002227B00DA11D621F739FB00DA11D621FBA
:1033C000839FA00D611D221F749F3327A00D611DD7
:1033D000231F849F600D211D822F762F6A2F1124B9
:1033E0009F5750408AF0E1F088234AF0EE0FFF1F0C
:1033F000BB1F661F771F881F91505040A9F79E3F43
:10340000510570F060CFAACF5F3FECF3983EDCF33C
:10341000869577956795B795F795E7959F5FC1F77F
:10342000FE2B880F911D9695879597F90895AA1BF5
:10343000BB1B51E107C0AA1FBB1FA617B70710F09F
:10344000A61BB70B881F991F5A95A9F780959095D1
:10345000BC01CD010895A1E21A2EAA1BBB1BFD01E0
:103460000DC0AA1FBB1FEE1FFF1FA217B307E40763
:10347000F50720F0A21BB30BE40BF50B661F771FBB
:10348000881F991F1A9469F760957095809590959B
:103490009B01AC01BD01CF010895052E97FB1EF4E1
:1034A00000940E94641A57FD07D00E942B1A07FC53
:1034B00003D04EF40C94641A5095409530952195A4
:1034C0003F4F4F4F5F4F0895909580957095619550
:1034D0007F4F8F4F9F4F0895EE0FFF1F0590F49180
:1034E000E02D0994CF93DF938230910510F482E0B0
:1034F00090E0E0916303F091640320E030E0A0E00D
:10350000B0E0309739F14081518148175907B8F040
:103510004817590771F482819381109729F0139607
:103520009C938E9312972CC09093640380936303B3
:1035300027C02115310531F04217530718F0A901B2
:10354000DB0101C0EF019A01BD01DF010280F381BF
:10355000E02DD7CF21153105F9F0281B390B243088
:10356000310580F48A819B816115710521F0FB0191
:103570009383828304C09093640380936303FE016A
:10358000329644C0FE01E20FF31F819391932250C3
:103590003109398328833AC0209161033091620355
:1035A000232B41F4209102013091030130936203F7
:1035B0002093610320910001309101012115310513
:1035C00041F42DB73EB74091040150910501241BF1
:1035D000350BE0916103F0916203E217F307A0F469
:1035E0002E1B3F0B2817390778F0AC014E5F5F4F59
:1035F0002417350748F04E0F5F1F50936203409326
:1036000061038193919302C0E0E0F0E0CF01DF918C
:10361000CF910895CF93DF93009709F487C0FC0101
:10362000329713821282C0916303D0916403209772
:1036300081F420813181280F391F8091610390919D
:1036400062038217930779F5F0936203E0936103B5
:103650006DC0DE0120E030E0AE17BF0750F41296D7
:103660004D915C9113979D014115510509F1DA01C6
:10367000F3CFB383A28340815181840F951F8A17B2
:103680009B0771F48D919C911197840F951F029661
:103690009183808312968D919C911397938382835B
:1036A0002115310529F4F0936403E09363033EC0D0
:1036B000D9011396FC93EE9312974D915D91A40F4F
:1036C000B51FEA17FB0779F480819181840F951F5C
:1036D0000296D90111969C938E93828193811396C1
:1036E0009C938E931297E0E0F0E08A819B81009793
:1036F00019F0FE01EC01F9CFCE0102962881398143
:10370000820F931F209161033091620328173907BC
:1037100069F4309729F4109264031092630302C095
:1037200013821282D0936203C0936103DF91CF9121
:103730000895A0E0B0E0EFE9FBE10C94BB1FEC01C1
:10374000CB01209719F40E94721AB8C0FE01E60F4F
:10375000F71F9E0122503109E217F30708F4ACC0AD
:10376000D9010D911C91119706171707B8F0053074
:10377000110508F49FC0A801445051094617570786
:1037800008F498C002501109061B170B01931193FE
:103790006D937C93CF010E940A1B8CC05B01A01A21
:1037A000B10A4E01800E911EA0916303B091640393
:1037B000612C712C60E070E0109709F449C0A815E5
:1037C000B905C9F5ED90FC901197670142E0C40E70
:1037D000D11CCA14DB0478F147018A189B086401E4
:1037E00042E0C40ED11C1296BC9012971396AC9175
:1037F000B5E0CB16D10440F0B282A38391828082DF
:10380000D9018D939C9309C00E5F1F4F0E0D1F1D94
:10381000F90111830083EB2DFA2F6115710531F049
:10382000DB011396FC93EE93129744C0F09364036C
:10383000E09363033FC06D917C9111976616770604
:1038400008F43B01BD0112960D90BC91A02DB4CFA0
:10385000609161037091620368157905E9F4681657
:103860007906D0F4409100015091010141155105B4
:1038700041F44DB75EB76091040170910501461B9C
:10388000570BE417F507C0F4F0936203E09361036C
:10389000F901918380830EC00E94721A7C01009707
:1038A00059F0A801BE010E946B1CCE010E940A1BA8
:1038B000C70104C0CE0102C080E090E0CDB7DEB702
:1038C000EEE00C94D71F9111EDC2803219F08950AF
:1038D0008550D0F70895FB01DC0102C001900D92E4
:1038E00041505040D8F70895FB01DC018D910190C3
:1038F00080190110D9F3990B0895FB01DC010190A7
:103900000D920020E1F70895AEE0B0E0EAE8FCE1B6
:103910000C94C71F85E08C838B899C899A8389834B
:10392000AE01495E5F4F6D897E89CE0101960E948E
:103930001B1E2E96E2E00C94E31F20FD09C0FC0143
:1039400023FD05C022FF02C073836283518340833D
:10395000089544FD10C046FD10C0DB01FC01AA0F14
:10396000BB1FEE1FFF1F1094D1F76A0F7B1F8E1F26
:103970009F1F31E003C033E001C034E0660F771FC2
:10398000881F991F3150D1F7620F711D811D911D44
:1039900008950F931F93CF93DF938C01C8010E946A
:1039A000601FEC0197FD08C00E94631C892BB1F7D2
:1039B000B801CE010E949E1FCE01DF91CF911F91D1
:1039C0000F9108958F929F92AF92CF92DF92EF92D4
:1039D000FF920F931F93CF93DF93EC01A62E4A0122
:1039E000022F0E94601FAC0155274B32510521F078
:1039F0004D32510551F40068AA9411F480E067C07B
:103A0000CE010E94601F97FDF9CF102F1D7F302F30
:103A1000307301F58033F1F4FF24FA94FA0C09F4C1
:103A200042C0CE010E94601F97FD3DC0382F3F7DF0
:103A3000383551F41264AA94AA94A9F1CE010E94D7
:103A4000601F97FF07C02FC006FF02C0126001C0B1
:103A50001261AF2CC12CD12C760120ED280F28301B
:103A600080F014FF04C0BE010E949E1F19C02A30BE
:103A700040F016FFF8CF2F7D3FEE320F363098F72B
:103A80002750412FC701B6010E94A91C6B017C0180
:103A90001260AA9459F0CE010E94601F97FFDDCFFB
:103AA00011FD04C0ABCFC12CD12C760117FF08C08B
:103AB000F094E094D094C094C11CD11CE11CF11C82
:103AC000212FB701A601C4010E949D1C81E0DF9156
:103AD000CF911F910F91FF90EF90DF90CF90AF901B
:103AE0009F908F900895A1E2B0E0E9E7FDE10C948A
:103AF000BC1F5C017A018E010F5F1F4F680180E2DD
:103B0000D8011D928A95E9F7F501738040E050E0F5
:103B1000812CB0E0912C81E090E0F90173FCA5913B
:103B200073FEA1918F017A2F9F01A11103C080E044
:103B300090E07DC0AE3519F44115510559F1E92DDC
:103B4000F0E0E417F5073CF4AD3569F1AD3219F456
:103B5000BB2319F103C0B11101C08A2EE72FE695EE
:103B6000E695E69586010E0F111DF801A72FA770A7
:103B70008C0102C0000F111FAA95E2F7D801B08195
:103B8000BA2BB083781559F0781510F47F5FE6CF23
:103B90007150E4CF9924939403C0B1E001C0B0E028
:103BA0004F5F5F4FBACFBB2319F08E8180628E8347
:103BB000911003C09924939415C0F601CE0181960B
:103BC000208120952193E817F907D1F7F3CFE1146D
:103BD000F10429F0D7018C93F70131967F016150F0
:103BE00001F1912CC50169A30E94601F69A197FD95
:103BF00016C0282F269526952695F601E20FF11D71
:103C0000208130E0AC014770552702C035952795DB
:103C10004A95E2F720FDDBCFB5010E949E1F91106F
:103C200086CFE114F10411F0D7011C92C801A196CE
:103C3000EDE00C94D81F4F925F927F928F929F92EB
:103C4000AF92BF92CF92DF92EF92FF920F931F93AA
:103C5000CF93DF931F92CDB7DEB78C012B017A0192
:103C6000FC0117821682A12CF801D380F201D3FC4B
:103C70008591D3FE8191382F2F01882309F4FCC050
:103C800090E039830E94631C3981892B21F0C8019F
:103C90000E94C91CE9CF353241F4F201D3FC3591C1
:103CA000D3FE31912F01353269F4C80139830E9466
:103CB000601F398197FDDEC03817B1F2B8010E944C
:103CC0009E1FDAC03A3241F4D3FC3591D3FE3191D4
:103CD0002F01BB24B39401C0B12C712C20ED230F14
:103CE0002A3090F4FB2DF260BF2E672D70E080E04B
:103CF00090E040E20E94A91C762EF201D3FC35919F
:103D0000D3FE31912F01EACFB1FE03C0711003C081
:103D1000B3C077247A94383619F03C3661F014C079
:103D2000F201D3FC3591D3FE31912F01383661F485
:103D3000FB2DF860BF2E8B2D8460B82EF201D3FCD2
:103D40003591D3FE31912F01332309F495C0632FB0
:103D500070E089ED94E039830E94551F3981892BE9
:103D600009F48AC0B0FC07C0F701C080D180C70148
:103D700002967C0102C0C12CD12C3E3651F4F801D0
:103D80004681578160E070E02B2DC6010E949D1C8A
:103D90006BCF3336A1F4B1FC02C077247394C80111
:103DA0000E94601F97FD66C0C114D10429F0F6017E
:103DB0008083C60101966C017A9489F757C03B3520
:103DC00059F49201A601672DC8010E94731D2C01B0
:103DD000009709F04BC045C0C80139830E94C91C37
:103DE000398197FD47C03F3669F128F4343631F107
:103DF000393679F12BC0333769F03537F9F026C001
:103E0000C114D10429F0F6018082C60101966C012B
:103E10007A9471F0C8010E94601F4C0197FD08C0A0
:103E20000E94631C892B61F3B801C4010E949E1F8C
:103E3000C114D104D9F0F601108218C0FB2DF06234
:103E4000BF2E07C08B2D8061B82E03C09B2D9064C0
:103E5000B92E2B2DA601672DC8010E94E21C8111ED
:103E600005C0F8018381807329F406C0B0FCFCCE44
:103E7000A394FACEAA2019F08A2D90E002C08FEF09
:103E80009FEF0F90DF91CF911F910F91FF90EF90D7
:103E9000DF90CF90BF90AF909F908F907F905F907A
:103EA0004F900895992788270895FC0105900616DC
:103EB00021F00020D9F7C00108953197CF0108956E
:103EC000CF93DF93EC012B8120FF33C026FF0AC084
:103ED0002F7B2B838E819F8101969F838E838A8186
:103EE00090E029C022FF0FC0E881F98180819927E5
:103EF00087FD9095009719F420622B831AC03196A4
:103F0000F983E8830EC0EA85FB85099597FF09C010
:103F10002B81019611F480E101C080E2822B8B831A
:103F200008C02E813F812F5F3F4F3F832E8399270B
:103F300002C08FEF9FEFDF91CF910895FB012381A6
:103F400020FF12C026FD10C08F3F3FEF930761F0A6
:103F500082832F7D2064238326813781215031097C
:103F600037832683992708958FEF9FEF08952F9227
:103F70003F924F925F926F927F928F929F92AF92F9
:103F8000BF92CF92DF92EF92FF920F931F93CF9346
:103F9000DF93CDB7DEB7CA1BDB0B0FB6F894DEBFDD
:103FA0000FBECDBF09942A88398848885F846E8403
:103FB0007D848C849B84AA84B984C884DF80EE804D
:103FC000FD800C811B81AA81B981CE0FD11D0FB656
:103FD000F894DEBF0FBECDBFED010895F894FFCF7A
:103FE000000065038000256C78202564256E00257F
:103FF0006C78202564202564256E002564202564C6
:10400000202564256E0050524F4E544F0050524FA1
:104010004E544F2D524550454154004C472D52416E
:1040200057004C47005243352D52415700524336FA
:104030002D524157004E45432D524157004E4543A6
:1040400000534F4E592D5241570050414E41534F4E
:104050004E49432D524157004A56432D5241570075
:1040600053414D53554E472D524157005748594ED5
:104070005445522D524157004149574152435435FE
:10408000303100444953482D524157005348415262
:10409000502D5241570053484152500044454E4F15
:1040A0004E2D52415700000000008A13F6140C13E5
:1040B0002513171368130D0A006E616E00696E6692
:0840C000006F7666002E00007F
:00000001FF
