:100000000C9474020C949C020C949C020C949C0220
:100010000C949C020C949C020C949C020C943C0941
:100020000C949C020C949C020C949C020C949C02D8
:100030000C949C020C949C020C949C020C949C02C8
:100040000C94BB110C949C020C949D140C94CF1432
:100050000C949C020C949C020C949C020C949C02A8
:100060000C949C020C949C025265733A20455252A7
:100070004F52005265733A204F4B004552524F5237
:100080003A20556E6B6E6F776E2049522070726FFA
:10009000746F636F6C20726571756573746564004D
:1000A00020005265713A200050524F4E544F20307C
:1000B000303030203030366420303032362030302E
:1000C00030302030313535203030616120303031F2
:1000D0003620303031352030303136203030313537
:1000E000203030313620303034302030303136203E
:1000F000303031352030303136203030313520301D
:10010000303136203030313420303031362030300C
:1001100031342030303136203030313520303031FC
:1001200036203030343020303031362030303430EA
:1001300020303031362030303135203030313620EB
:1001400030303430203030313620303034302030D0
:1001500030313620303034302030303136203030BD
:1001600034302030303136203030343020303031AF
:100170003620303034302030303136203030313499
:10018000203030313620303034302030303136209D
:10019000303031352030303136203030313520307C
:1001A000303136203030313420303031362030306C
:1001B000343020303031362030303430203030315F
:1001C0003620303031342030303136203030343049
:1001D000203030313620303031352030303136204B
:1001E0003030343020303031362030303430203030
:1001F000303136203030343020303031362030301D
:10020000313420303031362030303135203030310B
:1002100036203036306220303135352030303535BB
:1002200020303031362030653538203031353520BA
:100230003030353520303031362030306161006665
:100240006F72206578616D706C653A003C49522090
:1002500070726F746F636F6C3E203C495220646112
:1002600074613E203C6E65775F6C696E653E00533D
:10027000657269616C20706F727420636F6D6D615F
:100280006E6420666F726D61743A00765F69727396
:10029000656E6465722076312E303A2053656E6447
:1002A000696E672043495220636F6465732C207721
:1002B0006869636820636F6D65732066726F6D2077
:1002C00053657269616C20706F72742E00455252D2
:1002D0004F523A2050726F746F636F6C207061726E
:1002E000616D6574657273206172652077726F6EDF
:1002F000672E20537570706F7274656420666F721C
:100300006D61743A203C44454320616464726573B6
:10031000733E203C44454320636F6D6D616E643EC7
:100320000020004552524F523A2050726F746F6352
:100330006F6C20706172616D65746572732061729B
:10034000652077726F6E672E20537570706F7274B0
:10035000656420666F726D61743A203C44454320A9
:10036000636F64653E004552524F523A2050726F9F
:10037000746F636F6C20706172616D657465727308
:10038000206172652077726F6E672E2053757070D2
:100390006F7274656420666F726D61743A203C44BC
:1003A0004543206465766963653E205B4445432090
:1003B0007375626465766963655D203C44454320DE
:1003C00066756E6374696F6E3E00200020004552B2
:1003D000524F523A2050726F746F636F6C2070618D
:1003E00072616D6574657273206172652077726FDA
:1003F0006E672E20537570706F7274656420666F1F
:10040000726D61743A203C48455820646174613EC5
:10041000203C444543206E626974733E203C444551
:1004200043207265706561743E00200020004552D3
:10043000524F523A2050726F746F636F6C2070612C
:1004400072616D6574657273206172652077726F79
:100450006E672E20537570706F7274656420666FBE
:10046000726D61743A203C48455820646174613E65
:10047000203C444543206E626974733E00200000B6
:100480000000080002010000030407000000000053
:10049000000000010204081020408001020408103E
:1004A00020010204081020040404040404040402CB
:1004B00002020202020303030303030000000023FD
:1004C000002600290000000000250028002B000065
:1004D000000000240027002A006364696E6F7073B7
:1004E0007578585B0000FF1411241FBECFEFD8E0D1
:1004F000DEBFCDBF11E0A0E0B1E0E6E2F2E402C071
:1005000005900D92A83EB107D9F723E0A8EEB1E01F
:1005100001C01D92A636B207E1F714E0C8EED4E0A0
:1005200004C02297FE010E94771BC63ED107C9F77F
:100530000E9421190C9411210C940000AF92BF92DB
:10054000CF92DF92EF92FF920F931F93CF93DF939F
:1005500000D0CDB7DEB75C017B018A016901FB01E8
:100560001082118212821382FA01118210821A8281
:100570001982CE0101969F938F931F934F93FF9201
:100580006F9386E091E09F938F93F50181818F9324
:1005900080818F930E94A71D0FB6F894DEBF0FBE17
:1005A000CDBF029759F529813A81F5018481958162
:1005B0002817390719F5F801808191818197F0F4A6
:1005C000F701408151816281738120E130E084EC48
:1005D00092E00E94A3166DE774E084EC92E00E9422
:1005E0008015F801608171814AE050E084EC92E06E
:1005F0000E948B1681E0F601808309C06EE274E0F0
:1006000084EC92E00E94BC15F601108280E00F900D
:100610000F90DF91CF911F910F91FF90EF90DF909E
:10062000CF90BF90AF9008958F929F92AF92BF925C
:10063000CF92DF92EF92FF920F931F93CF93DF93AE
:1006400000D0CDB7DEB74C015B017A016901FB0137
:100650001082118212821382FA0111821082F90132
:1006600010821A821982CE0101969F938F93DF9296
:100670002F93FF924F93BF926F938FE091E09F93E0
:100680008F93F40181818F9380818F930E94A71DA6
:100690000FB6F894DEBF0FBECDBF0397D9F5298101
:1006A0003A81F401848195812817390799F5F7017A
:1006B00080819181819770F5F5014081518162813E
:1006C000738120E130E084EC92E00E94A3166CE29A
:1006D00074E084EC92E00E948015F70160817181E2
:1006E0004AE050E084EC92E00E9483166AE274E0F3
:1006F00084EC92E00E9480154AE050E060E070E0F7
:1007000084EC92E00E948B16F601108281E0F801E1
:10071000808309C06EEC73E084EC92E00E94BC150B
:10072000F801108280E00F900F90DF91CF911F9120
:100730000F91FF90EF90DF90CF90BF90AF909F9080
:100740008F9008954F925F926F927F928F929F92B7
:10075000AF92BF92CF92DF92EF92FF920F931F93CF
:10076000CF93DF9300D0CDB7DEB74C015B016A01B8
:10077000790128010FEF1FEFFB0111830083FA01BC
:1007800011830083F901118300831A8219829E016B
:100790002F5F3F4F39017F922F93FF92EF92DF92AD
:1007A0004F93BF926F938BE191E09F938F93F401EE
:1007B00081818F9380818F930E94A71D0FB6F8943B
:1007C000DEBF0FBECDBF82309105D1F47F926F9214
:1007D000FF92EF92BF92AF928EE191E09F938F9341
:1007E000F40181818F9380818F930E94A71DF60170
:1007F000118300830FB6F894DEBF0FBECDBF03C0D8
:10080000039709F045C029813A81F40184819581DB
:1008100028173907E9F5F501608171816F3F71058E
:1008200009F0B0F5F701808191818F3F910509F0C2
:1008300078F5F6018081918101968130914040F5F3
:100840004AE050E084EC92E00E9483166CEC73E086
:1008500084EC92E00E948015F601608171814AE08B
:1008600050E084EC92E00E9483166AEC73E084EC22
:1008700092E00E948015F701608171814AE050E0AA
:1008800084EC92E00E948B1681E0F201808309C023
:1008900066E673E084EC92E00E94BC15F2011082DF
:1008A00080E00F900F90DF91CF911F910F91FF90FB
:1008B000EF90DF90CF90BF90AF909F908F907F9000
:1008C0006F905F904F900895CF92DF92EF92FF92DA
:1008D0000F931F93CF93DF9300D0CDB7DEB77C018A
:1008E0008B016A018FEF9FEFFB01918380831A8256
:1008F0001982CE0101969F938F931F936F9381E28C
:1009000091E09F938F93F70181818F9380818F93E3
:100910000E94A71D0FB6F894DEBF0FBECDBF019792
:10092000B9F429813A81F701848195812817390723
:1009300079F4F8016081718177FD0AC04AE050E0E6
:1009400084EC92E00E948B1681E0F601808309C05E
:1009500063E273E084EC92E00E94BC15F601108221
:1009600080E00F900F90DF91CF911F910F91FF903A
:10097000EF90DF90CF900895AF92BF92CF92DF9229
:10098000EF92FF920F931F93CF93DF9300D0CDB7D9
:10099000DEB76C017B018A0159018FEF9FEFFB01EC
:1009A00091838083FA01918380831A821982CE0118
:1009B00001969F938F931F934F93FF926F938EE1B6
:1009C00091E09F938F93F60181818F9380818F9324
:1009D0000E94A71D0FB6F894DEBF0FBECDBF0297D1
:1009E00059F529813A81F6018481958128173907C3
:1009F00019F5F7016081718177FD1EC0F8018081D2
:100A0000918197FD19C04AE050E084EC92E00E9489
:100A1000B01661E273E084EC92E00E948015F80168
:100A2000608171814AE050E084EC92E00E94B61649
:100A300081E0F501808309C06DEC72E084EC92E006
:100A40000E94BC15F501108280E00F900F90DF919D
:100A5000CF911F910F91FF90EF90DF90CF90BF90BB
:100A6000AF900895CF92DF92EF92FF920F931F9372
:100A70006B017C01E1E2F0E060E070E0CB013197D6
:100A8000A9F08B019C01000F111F221F331FC7010A
:100A9000B6016170772788279927602B712B822BED
:100AA000932BF694E794D794C794E9CF1F910F91B5
:100AB000FF90EF90DF90CF90089526E040E052EC59
:100AC00061E070E084EC92E00E943B146BE872E01D
:100AD00084EC92E00E94BC156FE672E084EC92E038
:100AE0000E94BC156CE472E084EC92E00E94BC159C
:100AF0006FE372E084EC92E00E94BC1568EA70E05B
:100B000084EC92E00C94BC158F929F92AF92BF92AE
:100B1000CF92DF92EF92FF920F931F93CF93DF93C9
:100B2000CDB7DEB7A5970FB6F894DEBF0FBECDBF29
:100B300084EC92E00E945813181619060CF089C331
:100B40004AE064EC72E0CE010D960E94FA1600E0D5
:100B500010E089899A8908171907A0F4B801CE0115
:100B60000D960E941C18FC01808181340CF46EC328
:100B7000B801CE010D960E941C18FC0180818B35B6
:100B80000CF064C3A80160E070E0CE010D960E94F5
:100B90009318CE010D960E94C11889899A89892BD4
:100BA00009F44FC360E2CE010D960E944A188C01F1
:100BB0008F3FFFEF9F0711F409891A89980140E0E0
:100BC00050E0BE01635F7F4FCE0107960E944E1832
:100BD00029893A89A801BE01635F7F4FCE01019642
:100BE0000E944E181F8A188E198E1A8E1CA21BA2E4
:100BF0008FEF9FEF9AA389A398A38F8F9E8F8D8FDE
:100C000081E08DA3CE0107960E94C118CE01019606
:100C10000E94C11862EA70E084EC92E00E948015A4
:100C2000BE01695F7F4F84EC92E00E94A31560EAE9
:100C300070E084EC92E00E94801566E271E0CE01E3
:100C400007960E94FD17882361F0BE016F5F7F4FFA
:100C500084EC92E00E94CE1569817A8121E040E027
:100C600013C06DE271E0CE0107960E94FD17882344
:100C700089F0BE016F5F7F4F84EC92E00E94CE1539
:100C800069817A8121E041E088EE91E00E94650A65
:100C90008DA3C3C26BE371E0CE0107960E94FD17DE
:100CA0008823B9F09E012B5D3F4FAE014D5D5F4F34
:100CB000BE01695E7F4FCE0101960E949E0288238D
:100CC00009F4ABC22BA13CA14F89588D698D7A8D57
:100CD00064C062E471E0CE0107960E94FD1788238C
:100CE00009F460C08E010B5D1F4F9E01235E3F4FD4
:100CF000AE01415E5F4FBE016F5D7F4FCE01019639
:100D00000E94A203882309F488C28F8D98A1C9A0EC
:100D1000DAA097FF05C0C6018095909598A38F8FA4
:100D20000D8D1E8D6F8D78A1CB01AA2797FDA09503
:100D3000BA2F6627782F892F9A2F8827992748015D
:100D40009924AA2497FCA094BA2C540199248824AD
:100D5000682979298A299B29DD24EE24D7FCE0948F
:100D6000FE2C6C297D298E299F290095109522271C
:100D700017FD2095322F302F222711270027602BB7
:100D8000712B822B932B6F8B788F898F9A8F0E9478
:100D90003205AB01BC0120E230E088EE91E00E9418
:100DA000AA0D3BC265E471E0CE0107960E94FD17D3
:100DB0008823D9F09E012B5D3F4FAE014D5D5F4F03
:100DC000BE01695E7F4FCE0101960E949E0288237C
:100DD00009F423C22BA13CA14F89588D698D7A8DCE
:100DE00088EE91E00E942A0F18C26DE471E0CE01F6
:100DF00007960E94FD178823D9F09E012B5D3F4F77
:100E0000AE014D5D5F4FBE01695E7F4FCE01019621
:100E10000E949E02882309F400C22BA13CA14F89A5
:100E2000588D698D7A8D88EE91E00E948E0FF5C104
:100E300065E571E0CE0107960E94FD178823B9F0A1
:100E40009E012B5D3F4FAE014D5D5F4FBE01695E60
:100E50007F4FCE0101960E949E02882309F4DDC1D6
:100E60002BA13CA14F89588D698D7A8D64C06DE5A9
:100E700071E0CE0107960E94FD17882309F460C037
:100E80008E010B5D1F4F9E01235E3F4FAE01415E01
:100E90005F4FBE016F5D7F4FCE0101960E94A2039E
:100EA000882309F4BAC18F8D98A1C9A0DAA097FF51
:100EB00005C0C6018095909598A38F8F0D8D1E8DCE
:100EC0006F8D78A1CB01AA2797FDA095BA2F662731
:100ED000782F892F9A2F8827992748019924AA24A7
:100EE00097FCA094BA2C5401992488246829792964
:100EF0008A299B29DD24EE24D7FCE094FE2C6C2962
:100F00007D298E299F2900951095222717FD209570
:100F1000322F302F222711270027602B712B822B95
:100F2000932B6F8B788F898F9A8F0E943205AB013C
:100F3000BC0120E230E088EE91E00E94080E6DC115
:100F400061E671E0CE0107960E94FD178823D9F073
:100F50009E012B5D3F4FAE014D5D5F4FBE01695E4F
:100F60007F4FCE0101960E949E02882309F455C14D
:100F70002BA13CA14F89588D698D7A8D88EE91E027
:100F80000E94FB104AC16AE671E0CE0107960E94FA
:100F9000FD17882319F11B8A1C8A1D8A1E8A1C8E44
:100FA0001B8E9E012B5D3F4FAE01455E5F4FBE0124
:100FB0006D5E7F4FCE0101960E949E02882309F448
:100FC0002CC12B8D3C8D442737FD4095542F6B89C8
:100FD0007C8988EE91E00E94690E1FC168E771E08C
:100FE000CE0107960E94FD17882301F11B8A8E010E
:100FF0000B5D1F4F9E012D5E3F4FAE014D5D5F4F5C
:10100000BE01695E7F4FCE0101960E9414038823C2
:1010100009F403C12BA13CA14F89588D698D7A8DAC
:101020000B8988EE91E00E94450DF7C060E871E001
:10103000CE0107960E94FD178823D9F09E012B5DF3
:101040003F4FAE014D5D5F4FBE01695E7F4FCE01E8
:1010500001960E949E02882309F4DFC02BA13CA1C7
:101060004F89588D698D7A8D88EE91E00E94141019
:10107000D4C06CE871E0CE0107960E94FD1788236A
:10108000D9F09E012B5D3F4FAE014D5D5F4FBE011C
:10109000695E7F4FCE0101960E949E02882309F46B
:1010A000BCC02BA13CA14F89588D698D7A8D88EEEB
:1010B00091E00E945011B1C068E971E0CE0107963D
:1010C0000E94FD178823B1F01C8A1B8AAE014B5D7C
:1010D0005F4FBE016D5E7F4FCE0101960E9464049A
:1010E000882309F49AC06B897C8988EE91E00E947C
:1010F000170C93C063EA71E0CE0107960E94FD17BA
:101100008823D9F09E012B5D3F4FAE014D5D5F4FAF
:10111000BE01695E7F4FCE0101960E949E02882328
:1011200009F47BC02BA13CA14F89588D698D7A8D24
:1011300088EE91E00E94ED0C70C06CEA71E0CE0187
:1011400007960E94FD178823D9F09E012B5D3F4F23
:10115000AE014D5D5F4FBE01695E7F4FCE010196CE
:101160000E949E02882309F458C02BA13CA14F89FC
:10117000588D698D7A8D88EE91E00E9475104DC072
:1011800066EB71E0CE0107960E94FD178823E1F01F
:101190001C8E1B8E1C8A1B8A9E012B5D3F4FAE014D
:1011A0004D5E5F4FBE01655E7F4FCE0101960E948E
:1011B000BC04882391F14B895C896B8D7C8D88EE12
:1011C00091E00E94E91029C06CEB71E0CE01079616
:1011D0000E94FD178823D1F09E012B5D3F4FAE0189
:1011E0004D5D5F4FBE01695E7F4FCE0101960E944B
:1011F0009E02882391F02BA13CA14F89588D698DC7
:101200007A8D88EE91E00E948C0C07C06BE770E04D
:1012100084EC92E00E94BC151DA28DA1882319F0D8
:1012200063E770E002C068E670E084EC92E00E9440
:10123000BC15CE0101960E942217CE0107960E948E
:101240002217CE010D960E94221703C00F5F1F4F79
:1012500080CCA5960FB6F894DEBF0FBECDBFDF9150
:10126000CF911F910F91FF90EF90DF90CF90BF90A3
:10127000AF909F908F9008951F920F920FB60F928C
:1012800011242F933F934F935F936F937F938F938B
:101290009F93AF93BF93EF93FF938091EA010E94D6
:1012A0002F132091EE013091EF012F5F3F4F3093CC
:1012B000EF012093EE019091ED01953618F096E044
:1012C0009093E9019091E9019430C9F128F49230AA
:1012D00069F09330D1F05EC0953009F451C096307A
:1012E00009F058C091E09093BA0251C0811152C0E8
:1012F0002091EE013091EF012436310508F442C00F
:101300001092BA021092ED011CC0813009F042C067
:10131000E091ED0191E09E0F9093ED01F0E02091BE
:10132000EE013091EF01EE0FFF1FE751FE4F3087C6
:1013300027831092EF011092EE0194E029C08111F1
:1013400017C0E091ED0191E09E0F9093ED01F0E068
:101350002091EE013091EF01EE0FFF1FE751FE4F9C
:10136000308727831092EF011092EE0193E010C0B6
:101370002091EE013091EF012536310558F007C07C
:10138000811108C01092EF011092EE0103C095E0A8
:101390009093E9019091EC019923B9F081110AC071
:1013A0008091EB01882321F08091EB0161E009C07D
:1013B0002D9A0BC08091EB01882331F08091EB01D5
:1013C00060E00E94F91201C02D98FF91EF91BF914A
:1013D000AF919F918F917F916F915F914F913F91CD
:1013E0002F910F900FBE0F901F90189590ED980FB2
:1013F0009A3058F09FEB980F963038F09FE9980F8D
:1014000081E0963018F080E0089581E00895803200
:1014100039F0893029F091E0811190E0892F089509
:1014200081E008950F931F93CF93DF938C01F80110
:10143000C081D18188810E94070A882329F02196E2
:10144000F801D183C083F3CFDF91CF911F910F912A
:10145000089590ED980F9A3068F09FEB980F9630B2
:1014600010F4875308959FE9980F963010F487552C
:1014700008950895892F0895FF920F931F93CF9396
:10148000DF93EC0188810E94290AF82E89810E944D
:10149000290A082F8A810E94290A182F8B810E940D
:1014A000290A2F2D30E0322F22273295307F302B22
:1014B000282B40E1149FC0011124822B932BDF9134
:1014C000CF911F910F91FF9008954F925F926F926D
:1014D0007F928F929F92AF92BF92CF92DF92EF92C4
:1014E000FF920F931F93CF93DF9300D0CDB7DEB75A
:1014F0008C016B01B42EA22E7A836983E981FA8173
:101500008081882361F1CE0101960E94120AE98050
:10151000FA80F70180810E94F609811102C080E003
:10152000F5C0F70181810E94F6098823C1F3F70114
:1015300082810E94F609882391F3F70183810E943A
:10154000F609882361F3F70184810E94070A882342
:1015500031F384E0E80EF11CFA82E982CFCFDA821F
:10156000C982CE0101960E94120AE980FA80C70161
:101570000E943C0A892B99F6F4E0EF0EF11CFA82E6
:10158000E982CE0101960E94120AE980FA80C70121
:101590000E943C0ABC0180E090E00E942F1A21E3E7
:1015A00039E047E75EE30E94BD1A9B01AC0160E0B1
:1015B00074E284E799E40E9496190E94FE196B0177
:1015C00080E090E00E942F1A9B01AC0160E070E087
:1015D00080E89FE30E94961920E034E244E759E452
:1015E0000E94BD1A20E030E040E05FE30E94321923
:1015F0000E94FE194B01C60168EE73E00E94201B99
:101600006B0124E0E20EF11CFA82E982CE01019620
:101610000E94120AE980FA80C7010E943C0A3C013C
:1016200084E0E80EF11CFA82E982CE0101960E9464
:10163000120A49805A80C2010E943C0AE4E04E0E20
:10164000511C5A824982AA2081F0B11003C0662041
:1016500019F004C0882311F07C0101C07301FF243C
:10166000EE0CFF1CA12CB12C0AC07724B11002C0D3
:101670007301F6CF7C01FF24EE0CFF1C5301612C9B
:10168000712C6A147B046CF4CE0101960E94120A3C
:10169000FFEF6F1A7F0A89819A8104969A83898362
:1016A000F0CFB601C8010E94990BC12CD12C99240E
:1016B000CE14DF0454F5CE0101960E94120A8981EE
:1016C0009A81C0FE0DC00E943C0A889DB001899D90
:1016D000700D989D700D1124C8010E94090C0CC05A
:1016E0000E943C0A889DB001899D700D989D700DE7
:1016F0001124C8010E94FB0B89819A8104969A8368
:1017000089832FEFC21AD20AD3CF81E00F900F90B6
:10171000DF91CF911F910F91FF90EF90DF90CF90CD
:10172000BF90AF909F908F907F906F905F904F9001
:101730000895CF93DF93EB011092700061E083E096
:101740000E94C01260E083E00E94F9129E014427CB
:1017500037FD4095542F60E47FE180E090E00E94E7
:10176000561B81E08093B00089E08093B100209304
:10177000B3008BEA289F212D112426952093B400D5
:10178000DF91CF9108958F929F92AF92BF92CF92A7
:10179000DF92EF92FF926A017B01453051056105AE
:1017A000710500F10E9411124B015C0184E0C81A1E
:1017B000D108E108F108C80CD91CEA1CFB1CC814AC
:1017C000D904EA04FB0438F40E9411128616970625
:1017D000A806B906C8F30E9411126C157D058E0586
:1017E0009F05C8F3FF90EF90DF90CF90BF90AF9030
:1017F0009F908F9008952091B00020622093B000B8
:101800006115710529F0AB0160E070E00C94C30B29
:1018100008952091B0002F7D2093B00061157105CF
:1018200029F0AB0160E070E00C94C30B0895AF9217
:10183000BF92CF92DF92EF92FF920F931F93CF93BD
:10184000DF93EC015B0166E270E00E94990B60E6B9
:1018500072E2CE010E94FB0B64E971E1CE010E94AD
:10186000090C0AE110E0C12CD12CE12C32E0F32E5E
:1018700064EF71E0CE010E94FB0BD701C601807CB2
:101880009E7EA772B270892B8A2B8B2B19F068E58C
:1018900072E002C064EA76E0CE010E94090CF69480
:1018A000E794D794C7940150110911F7AA0CBB1CF7
:1018B0000FE010E064EF71E0CE010E94FB0BB7FE79
:1018C00003C068E572E002C064EA76E0CE010E94DF
:1018D000090CAA0CBB1C0150110961F764EF71E0FF
:1018E000CE010E94FB0B64EA76E0CE010E94090C57
:1018F00064EF71E0CE010E94FB0B60E070E0CE016E
:10190000DF91CF911F910F91FF90EF90DF90CF90DB
:10191000BF90AF900C94090C8F929F92AF92BF92A0
:10192000CF92DF92EF92FF92CF93DF93EC014A01C7
:101930005B01790166E270E00E94990B6CE271E054
:10194000CE010E94FB0B6EEE72E0CE010E94090CEC
:10195000C7010197C12CD12C7601C39404C0CC0CD3
:10196000DD1CEE1CFF1C8A95D2F7C114D104E104E2
:10197000F104F9F0D701C60188219921AA21BB21E0
:101980006CE271E0892B8A2B8B2B31F0CE010E9407
:10199000FB0B68E077E005C0CE010E94FB0B6EEE0A
:1019A00072E0CE010E94090CF694E794D794C79494
:1019B000DCCF6CE271E0CE010E94FB0B60E070E0D6
:1019C000CE01DF91CF91FF90EF90DF90CF90BF904D
:1019D000AF909F908F900C94090C8F929F92AF9232
:1019E000BF92CF92DF92EF92FF92CF93DF93EC0101
:1019F0004A015B01790168E370E00E94990B60E99C
:101A000071E0CE010E94FB0B64ED77E1CE010E94F4
:101A1000090CC7010197C12CD12C7601C39404C0D5
:101A2000CC0CDD1CEE1CFF1C8A95D2F7C114D1042E
:101A3000E104F104F9F0D701C60188219921AA2116
:101A4000BB2160E971E0892B8A2B8B2B31F0CE0111
:101A50000E94FB0B64EA76E005C0CE010E94FB0BFE
:101A600060EF7AE0CE010E94090CF694E794D794D7
:101A7000C794DCCFDF91CF91FF90EF90DF90CF90B4
:101A8000BF90AF909F908F9008958F929F92AF924A
:101A9000BF92CF92DF92EF92FF920F93CF93DF939B
:101AA000EC014A015B01790166E270E00E94990B4A
:101AB00001110AC060E47FE1CE010E94FB0B60EAE5
:101AC0007FE0CE010E94090CC7010197C12CD12CE7
:101AD0007601C39404C0CC0CDD1CEE1CFF1C8A955F
:101AE000D2F7C114D104E104F104F9F0D701C60121
:101AF00088219921AA21BB2168E572E0892B8A2BD4
:101B00008B2B31F0CE010E94FB0B60E476E005C028
:101B1000CE010E94FB0B66E272E0CE010E94090C2E
:101B2000F694E794D794C794DCCF68E572E0CE01D1
:101B30000E94FB0B60E070E0CE01DF91CF910F912E
:101B4000FF90EF90DF90CF90BF90AF909F908F90DD
:101B50000C94090C8F929F92AF92BF92CF92DF921A
:101B6000EF92FF92CF93DF93EC014A015B01790181
:101B700066E270E00E94990B60E47FE1CE010E9472
:101B8000FB0B60EA7FE0CE010E94090C68E572E081
:101B9000CE010E94FB0BC7010197C12CD12C76010D
:101BA000C39404C0CC0CDD1CEE1CFF1C8A95D2F73C
:101BB000C114D104E104F104E1F0D701C601882188
:101BC0009921AA21BB21892B8A2B8B2B19F060E448
:101BD00076E002C066E272E0CE010E94090C68E580
:101BE00072E0CE010E94FB0BF694E794D794C79461
:101BF000DFCF60E070E0CE01DF91CF91FF90EF90FA
:101C0000DF90CF90BF90AF909F908F900C94090C75
:101C10008F929F92AF92BF92CF92DF92EF92FF92FC
:101C2000CF93DF93EC014A015B01790166E270E03A
:101C30000E94990B68E273E2CE010E94FB0B64E9FB
:101C400071E1CE010E94090CC7010197C12CD12C72
:101C50007601C39404C0CC0CDD1CEE1CFF1C8A95DD
:101C6000D2F7C114D104E104F104F9F0D701C6019F
:101C700088219921AA21BB2160E372E0892B8A2B5C
:101C80008B2B31F0CE010E94FB0B6AE976E005C098
:101C9000CE010E94FB0B60E372E0CE010E94090CB2
:101CA000F694E794D794C794DCCF60E372E0CE015A
:101CB0000E94FB0B60E070E0CE01DF91CF91FF90BE
:101CC000EF90DF90CF90BF90AF909F908F900C944B
:101CD000090C6F927F928F929F92AF92BF92CF9298
:101CE000DF92EF92FF920F931F93CF93DF9300D079
:101CF00000D0CDB7DEB73C017B0163E270E0298301
:101D00003A834B835C830E94990B6EEA7DE0C301AA
:101D10000E94FB0B66ED76E0C3010E94090C00E116
:101D200010E0812C70E8972EA12CB12C6701E12CDA
:101D3000F12C5C814B813A81298166EF71E0C3010E
:101D400029833A834B835C830E94FB0BD501C4013A
:101D50008C219D21AE21BF2129813A814B815C815B
:101D6000892B8A2B8B2B51F06CED74E0C3010E9400
:101D7000090C29813A814B815C810DC060E971E0D9
:101D8000C30129833A834B835C830E94090C5C81E5
:101D90004B813A812981B694A794979487940150F6
:101DA000110959F600E210E0C12CD12CE12C90E889
:101DB000F92E66EF71E0C30129833A834B835C837C
:101DC0000E94FB0B29813A814B815C81D701C601BE
:101DD00082239323A423B523892B8A2B8B2B51F0A9
:101DE0006CED74E0C3010E94090C29813A814B819A
:101DF0005C810DC060E971E0C30129833A834B83A4
:101E00005C830E94090C5C814B813A812981F694A4
:101E1000E794D794C7940150110959F666EF71E021
:101E2000C3010E94FB0B60E070E0C3010F900F90B4
:101E30000F900F90DF91CF911F910F91FF90EF9036
:101E4000DF90CF90BF90AF909F908F907F906F90DA
:101E50000C94090C8F929F92AF92BF92CF92DF9217
:101E6000EF92FF92CF93DF93EC014A015B0179017E
:101E700064E270E00E94990B69E773E0CE010E9472
:101E8000FB0B69E773E0CE010E94090C69E773E080
:101E9000CE010E94FB0BC7010197C12CD12C76010A
:101EA000C39404C0CC0CDD1CEE1CFF1C8A95D2F739
:101EB000C114D104E104F10411F1D701C601882154
:101EC0009921AA21BB2169E773E0892B8A2B8B2BEF
:101ED00049F0CE010E94090C69E773E0CE010E942F
:101EE000FB0B08C0CE010E94FB0B69E773E0CE013B
:101EF0000E94090CF694E794D794C794D9CF60E078
:101F000070E0CE01DF91CF91FF90EF90DF90CF9006
:101F1000BF90AF909F908F900C94090C4F925F925E
:101F20006F927F928F929F92AF92BF92CF92DF92E9
:101F3000EF92FF920F931F93CF93DF93EC012A014F
:101F40003B01890164E270E00E94990B6AE67AE045
:101F5000CE010E94FB0B69E773E0CE010E94090CE1
:101F60006CEB71E0CE010E94FB0B6CEB71E0CE01DB
:101F70000E94090C01501109C12CD12C7601C39487
:101F800004C0CC0CDD1CEE1CFF1C0A95D2F7812C82
:101F9000912C54018394C114D104E104F10479F12A
:101FA00084E088169104A104B10419F408E713E051
:101FB00002C00CEB11E0D701C60184219521A621B6
:101FC000B721B801892B8A2B8B2B41F0CE010E94BF
:101FD000FB0BB801CE010E94090C07C0CE010E9484
:101FE000090CB801CE010E94FB0B8FEF881A980AEA
:101FF000A80AB80AF694E794D794C794CCCF60E0C7
:1020000070E0CE01DF91CF911F910F91FF90EF9083
:10201000DF90CF90BF90AF909F908F907F906F9008
:102020005F904F900C94090C8F929F92AF92BF9249
:10203000CF92DF92EF92FF92CF93DF93EC014A01B0
:102040005B01790166E270E00E94990B68E873E138
:10205000CE010E94FB0B68E873E1CE010E94090CDF
:10206000C7010197C12CD12C7601C39404C0CC0CBC
:10207000DD1CEE1CFF1C8A95D2F7C114D104E104CB
:10208000F104F9F0D701C60188219921AA21BB21C9
:1020900060E372E0892B8A2B8B2B31F0CE010E94FA
:1020A000FB0B60E476E005C0CE010E94FB0B60E311
:1020B00072E0CE010E94090CF694E794D794C7947D
:1020C000DCCF60E372E0CE010E94FB0B60E070E0C9
:1020D000CE01DF91CF91FF90EF90DF90CF90BF9036
:1020E000AF909F908F900C94090C4F925F926F92DB
:1020F0007F928F929F92AF92BF92CF92DF92EF9298
:10210000FF920F931F93CF93DF93EC012A013B01C2
:10211000890166E270E00E94990B01501109812C3F
:10212000912C5401839404C0880C991CAA1CBB1CDC
:102130000A95D2F703E010E075016401C114D104DF
:10214000E104F104F9F0D701C60184219521A6210B
:10215000B72165EF70E0892B8A2B8B2B31F0CE01F4
:102160000E94FB0B6DE077E005C0CE010E94FB0BE7
:102170006BE173E0CE010E94090CF694E794D794CA
:10218000C794DCCF65EF70E0CE010E94FB0B6BE1E2
:1021900073E0CE010E94090C68E270E080E090E0FC
:1021A0000E943412409483E058260150110921F610
:1021B000DF91CF911F910F91FF90EF90DF90CF9023
:1021C000BF90AF909F908F907F906F905F904F9057
:1021D0000895440F551F440F551F426020E030E022
:1021E000362F330F330F422B532B60E070E02FE07C
:1021F00030E00C9475108F929F92AF92BF92CF9265
:10220000DF92EF92FF92CF93DF93EC014A015B01E3
:10221000790168E270E00E94990B60E679E0CE01F6
:102220000E94FB0B68E572E0CE010E94090CC70119
:102230000197C12CD12C7601C39404C0CC0CDD1CB9
:10224000EE1CFF1C8A95D2F7C114D104E104F104FD
:10225000E1F0D701C60188219921AA21BB21892B50
:102260008A2B8B2B19F060EB74E002C068E572E0FA
:10227000CE010E94FB0B68E572E0CE010E94090CC2
:10228000F694E794D794C794DFCFDF91CF91FF9076
:10229000EF90DF90CF90BF90AF909F908F90089578
:1022A0008F929F92AF92BF92CF92DF92EF92FF9266
:1022B000CF93DF93EC014A015B01790166E270E0A4
:1022C0000E94990B6EEE72E0CE010E94FB0B6EEE47
:1022D00072E0CE010E94090C62E27BE0CE010E9416
:1022E000FB0B62E27BE0CE010E94090CC701019763
:1022F000C12CD12C7601C39404C0CC0CDD1CEE1C87
:10230000FF1C8A95D2F7C114D104E104F104F9F05D
:10231000D701C60188219921AA21BB216EEE72E066
:10232000892B8A2B8B2B31F0CE010E94FB0B66E6AA
:1023300078E005C0CE010E94FB0B6EEE72E0CE018C
:102340000E94090CF694E794D794C794DCCF6EEE04
:1023500072E0CE010E94FB0B6EEE72E0CE01DF91C7
:10236000CF91FF90EF90DF90CF90BF90AF909F9074
:102370008F900C94090C1F920F920FB60F9211249C
:102380002F933F938F939F93AF93BF938091BC0202
:102390009091BD02A091BE02B091BF023091BB02EC
:1023A00023E0230F2D3720F40196A11DB11D05C098
:1023B00026E8230F0296A11DB11D2093BB02809336
:1023C000BC029093BD02A093BE02B093BF02809165
:1023D000C0029091C102A091C202B091C3020196C5
:1023E000A11DB11D8093C0029093C102A093C202AF
:1023F000B093C302BF91AF919F918F913F912F9165
:102400000F900FBE0F901F9018952FB7F894609102
:10241000BC027091BD028091BE029091BF022FBF9D
:1024200008953FB7F8948091C0029091C102A091A5
:10243000C202B091C30226B5A89B05C02F3F19F078
:102440000196A11DB11D3FBF6627782F892F9A2FB6
:10245000620F711D811D911D42E0660F771F881F5D
:10246000991F4A95D1F70895CF92DF92EF92FF928C
:10247000CF93DF936B017C010E941112EB01C11419
:10248000D104E104F10489F00E9430190E94111274
:102490006C1B7D0B683E734090F381E0C81AD10835
:1024A000E108F108C851DC4FEACFDF91CF91FF90EE
:1024B000EF90DF90CF900895789484B5826084BDCA
:1024C00084B5816084BD85B5826085BD85B5816038
:1024D00085BDEEE6F0E0808181608083E1E8F0E098
:1024E0001082808182608083808181608083E0E8C7
:1024F000F0E0808181608083E1EBF0E080818460A6
:102500008083E0EBF0E0808181608083EAE7F0E0A7
:10251000808184608083808182608083808181600B
:1025200080838081806880831092C1000895833009
:1025300081F028F4813099F08230A1F0089587303D
:10254000A9F08830B9F08430D1F4809180008F7D7B
:1025500003C0809180008F7780938000089584B5B8
:102560008F7702C084B58F7D84BD08958091B000BF
:102570008F7703C08091B0008F7D8093B000089565
:10258000CF93DF9390E0FC01ED56FB4F2491FC01CB
:10259000E955FB4F8491882349F190E0880F991FFA
:1025A000FC01E153FB4FA591B4918B539B4FFC0170
:1025B000C591D4919FB7611108C0F8948C91209572
:1025C00082238C93888182230AC0623051F4F8946C
:1025D0008C91322F309583238C938881822B888332
:1025E00004C0F8948C91822B8C939FBFDF91CF9184
:1025F00008950F931F93CF93DF931F92CDB7DEB74C
:10260000282F30E0F901E158FB4F8491F901ED5694
:10261000FB4F1491F901E955FB4F04910023C9F0D8
:10262000882321F069830E9497126981E02FF0E0EE
:10263000EE0FFF1FEB53FB4FA591B4919FB7F8949A
:102640008C91611103C01095812301C0812B8C9363
:102650009FBF0F90DF91CF911F910F910895CF935E
:10266000DF93282F30E0F901E158FB4F8491F90105
:10267000ED56FB4FD491F901E955FB4FC491CC23A2
:1026800091F081110E949712EC2FF0E0EE0FFF1FE6
:10269000E554FB4FA591B4912C912D2381E090E05E
:1026A00021F480E002C080E090E0DF91CF910895B6
:1026B000FC01818D228D90E0805C9F4F821B9109EF
:1026C0008F7399270895FC01918D828D981731F0B1
:1026D000828DE80FF11D858D90E008958FEF9FEFBB
:1026E0000895FC01918D828D981761F0828DDF0134
:1026F000A80FB11D5D968C91928D9F5F9F73928FF5
:1027000090E008958FEF9FEF089585EF94E1892B76
:1027100049F080E090E0892B29F00E94F5148111A6
:102720000C9400000895FC01848DDF01A80FB11DF9
:10273000A35ABF4F2C91848D90E001968F739927F7
:10274000848FA689B7892C93A089B1898C918064E4
:102750008C93938D848D981306C00288F389E02DA5
:1027600080818F7D80830895CF93DF93EC01888DE6
:102770008823C9F0EA89FB89808185FD05C0A88985
:10278000B9898C9186FD0FC00FB607FCF5CF80810B
:1027900085FFF2CFA889B9898C9185FFEDCFCE0155
:1027A0000E949313E7CFDF91CF910895CF92DF92EC
:1027B000FF920F931F93CF93DF931F92CDB7DEB796
:1027C0006C0181E0D60158968C9358975B969C914A
:1027D0005B975C968C915C97981307C05096ED912F
:1027E000FC915197808185FD2EC0F601038D10E08C
:1027F0000F5F1F4F0F731127F02EF601848DF81213
:1028000011C00FB607FCF9CFD6015096ED91FC919F
:102810005197808185FFF1CFC60169830E94931390
:102820006981EBCF838DE80FF11DE35AFF4F608381
:10283000D6015B960C935B975296ED91FC91539762
:10284000808180620CC0D6015696ED91FC9157971D
:1028500060835096ED91FC915197808180648083D4
:1028600081E090E00F90DF91CF911F910F91FF9049
:10287000DF90CF900895BF92CF92DF92EF92FF92B8
:10288000CF93DF93EC016A017B01B22EE889F989CD
:1028900082E08083411581EE580761057105A1F042
:1028A00060E079E08DE390E0A70196010E94341B7F
:1028B000215031094109510956954795379527957A
:1028C000211580E1380798F0E889F989108260E8DD
:1028D00074E88EE190E0A70196010E94341B21501C
:1028E0003109410951095695479537952795EC854A
:1028F000FD853083EE85FF852083188EEC89FD8968
:10290000B082EA89FB89808180618083EA89FB89C2
:10291000808188608083EA89FB89808180688083E8
:10292000EA89FB8980818F7D8083DF91CF91FF9041
:10293000EF90DF90CF90BF9008951F920F920FB647
:102940000F9211242F938F939F93EF93FF93E09116
:10295000D402F091D5028081E091DA02F091DB029D
:1029600082FD12C090818091DD028F5F8F73209174
:10297000DE02821751F0E091DD02F0E0EC53FD4FF2
:10298000958F8093DD0201C08081FF91EF919F912F
:102990008F912F910F900FBE0F901F9018951F923F
:1029A0000F920FB60F9211242F933F934F935F9383
:1029B0006F937F938F939F93AF93BF93EF93FF9307
:1029C00084EC92E00E949313FF91EF91BF91AF913D
:1029D0009F918F917F916F915F914F913F912F9137
:1029E0000F900FBE0F901F90189584EC92E00E94FC
:1029F000581321E0892B09F420E0822F08951092CA
:102A0000C7021092C60288EE93E0A0E0B0E0809387
:102A1000C8029093C902A093CA02B093CB028AEC79
:102A200091E09093C5028093C40285EC90E090936E
:102A3000D1028093D00284EC90E09093D3028093F3
:102A4000D20280EC90E09093D5028093D40281EC86
:102A500090E09093D7028093D60282EC90E090931E
:102A6000D9028093D80286EC90E09093DB028093A9
:102A7000DA021092DD021092DE021092DF02109252
:102A8000E0020895CF92DF92EF92FF920F931F938F
:102A9000CF93DF937C016A01EB0100E010E00C159D
:102AA0001D0571F06991D701ED91FC910190F081C4
:102AB000E02DC7010995892B19F00F5F1F4FEFCF4C
:102AC000C801DF91CF911F910F91FF90EF90DF90A0
:102AD000CF9008956115710581F0DB010D90002004
:102AE000E9F7AD0141505109461B570BDC01ED914F
:102AF000FC910280F381E02D099480E090E008953C
:102B0000EF92FF920F931F93CF93DF938C017B0182
:102B1000C0E0D0E0F701EC0FFD1F6491662359F08F
:102B2000F801A081B181ED91FC91C8010995892B33
:102B300011F02196EFCFCE01DF91CF911F910F9130
:102B4000FF90EF900895DC01ED91FC91DB0114966C
:102B50004D915C9115976D917C910280F381E02DF0
:102B60000994DC01ED91FC910190F081E02D099434
:102B700066ED71E00C946A150F931F93CF93DF936A
:102B8000EC010E9480158C01CE010E94B815800FC7
:102B9000911FDF91CF911F910F9108950F931F9374
:102BA000CF93DF93EC010E94A3158C01CE010E940C
:102BB000B815800F911FDF91CF911F910F9108954C
:102BC0008F929F92AF92BF92CF92DF92EF92FF923D
:102BD0000F931F93CF93DF93CDB7DEB7A1970FB6B7
:102BE000F894DEBF0FBECDBF7C01C42EE52FCB0114
:102BF000D22E19A221E02D1510F02AE0D22E8E013E
:102C00000F5D1F4F8D2C912CA12CB12C6C2D7E2F84
:102C1000A50194010E94341B8C2DD29E8019112491
:102C2000015011098A3014F4805D01C0895CF801FB
:102C30008083211531054105510521F0C22EE32F76
:102C4000CA01E4CFB801C7010E946A15A1960FB668
:102C5000F894DEBF0FBECDBFDF91CF911F910F91D2
:102C6000FF90EF90DF90CF90BF90AF909F908F90AC
:102C70000895CF92DF92EF92FF920F931F93CF931D
:102C8000DF93EC016A017B012115310579F4E881BC
:102C9000F9810190F081E02D642FDF91CF911F9198
:102CA0000F91FF90EF90DF90CF9009942A3031057B
:102CB000E9F477FF1AC06DE20E94B1158C01442738
:102CC0005527BA014C195D096E097F092AE0CE012A
:102CD0000E94E015800F911FDF91CF911F910F91FE
:102CE000FF90EF90DF90CF9008952AE0B701A60102
:102CF000CE01DF91CF911F910F91FF90EF90DF9068
:102D0000CF900C94E0159A01AB01662757FD6095B2
:102D1000762F0C9439160F931F93CF93DF93EC010A
:102D20009A01AB01662757FD6095762F0E943916F0
:102D30008C01CE010E94B815800F911FDF91CF91B9
:102D40001F910F9108952115310541F4DC01ED919A
:102D5000FC910190F081E02D642F09940C94E01512
:102D60009A01AB0160E070E00C94A3160F931F93DF
:102D7000CF93DF93EC019A01AB0160E070E00E9419
:102D8000A3168C01CE010E94B815800F911FDF9110
:102D9000CF911F910F9108950F931F93CF93DF93BE
:102DA000EC010E940512688779878A879B87E881F2
:102DB000F9810680F781E02DCE01099597FF15C0B6
:102DC0000E940512088519852A853B85601B710BB9
:102DD000820B930B0C811D812E813F81601771073F
:102DE0008207930720F38FEF9FEFDF91CF911F9121
:102DF0000F910895EF92FF920F931F93CF93DF935C
:102E0000EC018B01E42E68ED71E00E949017C8017F
:102E10000E94CC16FF24E7FCF09497FD0BC08E15A2
:102E20009F0541F0682FCE010E94EA17C8010E9459
:102E3000CC16F3CFCE01DF91CF911F910F91FF9070
:102E4000EF900895FC01808191810C94131CCF9325
:102E5000DF93EC0188819981009711F00E94131C87
:102E6000198218821D821C821B821A82DF91CF91E7
:102E700008950F931F93CF93DF93EC018B016F5F46
:102E80007F4F888199810E94A21C009731F099831D
:102E900088831B830A8381E001C080E0DF91CF91AA
:102EA0001F910F910895CF93DF93EC018881998151
:102EB000892B29F08A819B818617970760F4CE01C0
:102EC0000E943917882341F08C819D81892B19F448
:102ED000E881F981108281E0DF91CF910895EF922E
:102EE000FF920F931F93CF93DF93EC017B018A0135
:102EF000BA010E945317811104C0CE010E94271706
:102F000007C01D830C83B701888199810E94911DA0
:102F1000CE01DF91CF911F910F91FF90EF90089517
:102F2000FC011182108213821282158214826115B3
:102F3000710559F0FB0101900020E9F7AF01415004
:102F40005109461B570B0C946F170895CF93DF93CD
:102F5000EC016115710561F0FB0101900020E9F7BA
:102F6000AF0141505109461B570B0E946F1702C019
:102F70000E942717CE01DF91CF910895EF92FF9223
:102F80000F931F93CF93DF93EC017B010C811D8185
:102F90006115710511F480E016C04115510591F0DD
:102FA000040F151FB8010E9453178823A1F328812D
:102FB00039818C819D81B701820F931F0E94911DE1
:102FC0001D830C8381E0DF91CF911F910F91FF90C2
:102FD000EF900895CF93DF9300D0CDB7DEB769832C
:102FE0001A8241E050E0BE016F5F7F4F0E94BE1722
:102FF0000F900F90DF91CF910895FC0124813581CE
:10300000232B31F421E061157105A1F0FB0108C00B
:10301000FC01808191816115710531F421E0FC0191
:103020008081882339F005C00E94881D21E0892B0A
:1030300009F020E0822F0895FC01848195816817B2
:10304000790720F480819181009729F4109261031F
:1030500081E693E00895860F971F0895CF93DF933D
:10306000FC01848195814817590778F4C081D1818A
:10307000772767FD7095CE01840F951F0E947D1DF7
:10308000009719F08C1B9D0B02C08FEF9FEFDF9113
:10309000CF91089540E050E00C942E18BF92CF924B
:1030A000DF92EF92FF920F931F93CF93DF936C0108
:1030B0007B01EA0189012417350720F48D2FE901EE
:1030C000042F182F68ED71E0C6010E949017D701F8
:1030D00014968D919C911597C817D907C8F480173D
:1030E000910708F48C01D701ED91FC911197E00F45
:1030F000F11FB08010826D917C916C0F7D1FC60115
:103100000E94A617D701ED91FC91E00FF11FB0824C
:10311000C601DF91CF911F910F91FF90EF90DF904B
:10312000CF90BF900895CF93DF93EC01CB012C811A
:103130003D816217730710F541155105F9F0B9018A
:10314000681B790B4617570708F4BA01E881F98123
:10315000261B370B3D832C83A901481B590B680F95
:10316000791F6E0F7F1F8E0F9F1F0E94981DE88191
:10317000F9818C819D81E80FF91F1082DF91CF9139
:103180000895AF92BF92CF92DF92EF92FF920F938A
:103190001F93CF93DF937C01DC01CD90DC901197DE
:1031A000C114D10409F441C01496CD91DC91159756
:1031B0002097D9F156018501BFEFAB1ABB0AF80180
:1031C0008081992787FD90950E946C1D892B99F726
:1031D0002197CC0DDD1D8881992787FD90950E9450
:1031E0006C1D892B91F4AE014F5F5F4F401B510B5B
:1031F000D70115965C934E931497C016D10650F4E0
:10320000B801C6010E94741D05C0C017D10758F34C
:103210002197E1CFD701ED91FC91119714968D91F3
:103220009C911597E80FF91F1082DF91CF911F91A4
:103230000F91FF90EF90DF90CF90BF90AF900895E7
:1032400008950E945C120E9420190E945D05C5E845
:10325000D3E10E9484052097E1F30E948513F9CF02
:1032600008955058BB27AA270ED04DC13ED130F04B
:1032700043D120F031F49F3F11F41EF433C10EF41A
:10328000E095E7FB29C1E92F4FD180F3BA17620718
:1032900073078407950718F071F49EF567C10EF463
:1032A000E0950B2EBA2FA02D0B01B90190010C0156
:1032B000CA01A0011124FF27591B99F0593F50F46E
:1032C000503E68F11A16F040A22F232F342F4427C6
:1032D000585FF3CF469537952795A795F0405395BE
:1032E000C9F77EF41F16BA0B620B730B840BBAF08E
:1032F0009150A1F0FF0FBB1F661F771F881FC2F7F9
:103300000EC0BA0F621F731F841F48F4879577950C
:103310006795B795F7959E3F08F0B3CF9395880FC3
:1033200008F09927EE0F9795879508950CD0EBC07C
:10333000E3D040F0DAD030F021F45F3F19F0CCC098
:10334000511115C1CFC0F0D098F39923C9F355237B
:10335000B1F3951B550BBB27AA2762177307840788
:1033600038F09F5F5F4F220F331F441FAA1FA9F33E
:1033700033D00E2E3AF0E0E830D091505040E69530
:10338000001CCAF729D0FE2F27D0660F771F881F91
:10339000BB1F261737074807AB07B0E809F0BB0B80
:1033A000802DBF01FF2793585F4F2AF09E3F5105A4
:1033B00068F092C0DCC05F3FECF3983EDCF386958A
:1033C00077956795B795F7959F5FC9F7880F911D1A
:1033D0009695879597F90895E1E0660F771F881F06
:1033E000BB1F621773078407BA0720F0621B730BB9
:1033F000840BBA0BEE1F88F7E095089504D068940B
:10340000B111B5C0089598D088F09F5790F0B92FAA
:103410009927B751A0F0D1F0660F771F881F991F29
:103420001AF0BA95C9F712C0B13081F09FD0B1E05F
:1034300008959CC0672F782F8827B85F39F0B93F6F
:10344000CCF3869577956795B395D9F73EF490952B
:103450008095709561957F4F8F4F9F4F0895E894A9
:1034600009C097FB3EF490958095709561957F4FCC
:103470008F4F9F4F9923A9F0F92F96E9BB2793957A
:10348000F695879577956795B795F111F8CFFAF48A
:10349000BB0F11F460FF1BC06F5F7F4F8F4F9F4FBB
:1034A00016C0882311F096E911C0772321F09EE819
:1034B000872F762F05C0662371F096E8862F70E07F
:1034C00060E02AF09A95660F771F881FDAF7880F59
:1034D0009695879597F9089597F99F6780E870E02A
:1034E00060E008959FEF80EC089500240A9416167A
:1034F000170618060906089500240A9412161306E2
:10350000140605060895092E0394000C11F488236F
:1035100052F0BB0F40F4BF2B11F460FF04C06F5F8B
:103520007F4F8F4F9F4F089557FD9058440F551F61
:1035300059F05F3F71F04795880F97FB991F61F035
:103540009F3F79F087950895121613061406551FAC
:10355000F2CF4695F1DF08C0161617061806991F18
:10356000F1CF86957105610508940895E894BB270D
:1035700066277727CB0197F908950BD0C4CFB5DF25
:1035800028F0BADF18F0952309F0A6CFABCF1124AD
:10359000EECFCADFA0F3959FD1F3950F50E0551FF2
:1035A000629FF001729FBB27F00DB11D639FAA2798
:1035B000F00DB11DAA1F649F6627B00DA11D661FE7
:1035C000829F2227B00DA11D621F739FB00DA11D08
:1035D000621F839FA00D611D221F749F3327A00DC2
:1035E000611D231F849F600D211D822F762F6A2F5E
:1035F00011249F5750408AF0E1F088234AF0EE0FE3
:10360000FF1FBB1F661F771F881F91505040A9F7EF
:103610009E3F510570F060CFAACF5F3FECF3983E1C
:10362000DCF3869577956795B795F795E7959F5F56
:10363000C1F7FE2B880F911D9695879597F90895F0
:10364000AA1BBB1B51E107C0AA1FBB1FA617B707C8
:1036500010F0A61BB70B881F991F5A95A9F78095E4
:103660009095BC01CD010895A1E21A2EAA1BBB1BA7
:10367000FD010DC0AA1FBB1FEE1FFF1FA217B3073E
:10368000E407F50720F0A21BB30BE40BF50B661F54
:10369000771F881F991F1A9469F760957095809518
:1036A00090959B01AC01BD01CF010895052E97FBBC
:1036B0001EF400940E946D1B57FD07D00E94341B1E
:1036C00007FC03D04EF40C946D1B5095409530953B
:1036D00021953F4F4F4F5F4F08959095809570957E
:1036E00061957F4F8F4F9F4F0895EE0FFF1F0590FD
:1036F000F491E02D0994CF93DF938230910510F47B
:1037000082E090E0E0916403F091650320E030E016
:10371000A0E0B0E0309739F1408151814817590756
:10372000B8F04817590771F482819381109729F0F6
:1037300013969C938E9312972CC09093650380935D
:10374000640327C02115310531F04217530718F0E3
:10375000A901DB0101C0EF019A01BD01DF01028077
:10376000F381E02DD7CF21153105F9F0281B390B56
:103770002430310580F48A819B816115710521F027
:10378000FB019383828304C0909365038093640359
:10379000FE01329644C0FE01E20FF31F8193919324
:1037A00022503109398328833AC020916203309135
:1037B0006303232B41F420910201309103013093E4
:1037C00063032093620320910001309101012115D0
:1037D000310541F42DB73EB74091040150910501E8
:1037E000241B350BE0916203F0916303E217F307AA
:1037F000A0F42E1B3F0B2817390778F0AC014E5F61
:103800005F4F2417350748F04E0F5F1F5093630337
:10381000409362038193919302C0E0E0F0E0CF0116
:10382000DF91CF910895CF93DF93009709F487C07C
:10383000FC01329713821282C0916403D091650318
:10384000209781F420813181280F391F80916203F4
:10385000909163038217930779F5F0936303E093E4
:1038600062036DC0DE0120E030E0AE17BF0750F408
:1038700012964D915C9113979D014115510509F1E7
:10388000DA01F3CFB383A28340815181840F951F66
:103890008A179B0771F48D919C911197840F951F46
:1038A00002969183808312968D919C9113979383B6
:1038B00082832115310529F4F0936503E0936403B5
:1038C0003EC0D9011396FC93EE9312974D915D91F2
:1038D000A40FB51FEA17FB0779F480819181840F4B
:1038E000951F0296D90111969C938E9382819381A4
:1038F00013969C938E931297E0E0F0E08A819B816F
:10390000009719F0FE01EC01F9CFCE010296288153
:103910003981820F931F209162033091630328172E
:10392000390769F4309729F4109265031092640303
:1039300002C013821282D0936303C0936203DF91AB
:10394000CF910895A0E0B0E0E8EAFCE10C94DE201D
:10395000EC01CB01209719F40E947B1BB8C0FE013B
:10396000E60FF71F9E0122503109E217F30708F412
:10397000ACC0D9010D911C91119706171707B8F02B
:103980000530110508F49FC0A8014450510946179D
:10399000570708F498C002501109061B170B019332
:1039A00011936D937C93CF010E94131C8CC05B011B
:1039B000A01AB10A4E01800E911EA0916403B0912D
:1039C0006503612C712C60E070E0109709F449C028
:1039D000A815B905C9F5ED90FC901197670142E073
:1039E000C40ED11CCA14DB0478F147018A189B0865
:1039F000640142E0C40ED11C1296BC90129713963B
:103A0000AC91B5E0CB16D10440F0B282A383918291
:103A10008082D9018D939C9309C00E5F1F4F0E0DBC
:103A20001F1DF90111830083EB2DFA2F611571051C
:103A300031F0DB011396FC93EE93129744C0F093A0
:103A40006503E09364033FC06D917C911197661606
:103A5000770608F43B01BD0112960D90BC91A02D94
:103A6000B4CF609162037091630368157905E9F43E
:103A700068167906D0F4409100015091010141157A
:103A8000510541F44DB75EB7609104017091050195
:103A9000461B570BE417F507C0F4F0936303E0935C
:103AA0006203F901918380830EC00E947B1B7C011D
:103AB000009759F0A801BE010E94741DCE010E941A
:103AC000131CC70104C0CE0102C080E090E0CDB756
:103AD000DEB7EEE00C94FA20911107C3803219F0A2
:103AE00089508550D0F70895FB01DC0102C0019098
:103AF0000D9241505040D8F70895FC0181918617EE
:103B000021F08823D9F7992708953197CF01089597
:103B1000FB01DC018D91019080190110D9F3990B03
:103B20000895FB01DC0101900D920020E1F708955A
:103B3000FB01DC014150504048F001900D92002003
:103B4000C9F701C01D9241505040E0F70895AEE022
:103B5000B0E0EDEAFDE10C94EA2085E08C838B89EE
:103B60009C899A838983AE01495E5F4F6D897E8906
:103B7000CE0101960E943E1F2E96E2E00C94062193
:103B800020FD09C0FC0123FD05C022FF02C0738394
:103B9000628351834083089544FD10C046FD10C0E8
:103BA000DB01FC01AA0FBB1FEE1FFF1F1094D1F712
:103BB0006A0F7B1F8E1F9F1F31E003C033E001C0DF
:103BC00034E0660F771F881F991F3150D1F7620FBD
:103BD000711D811D911D08950F931F93CF93DF9346
:103BE0008C01C8010E948320EC0197FD08C00E944F
:103BF0006C1D892BB1F7B801CE010E94C120CE0106
:103C0000DF91CF911F910F9108958F929F92AF9264
:103C1000CF92DF92EF92FF920F931F93CF93DF9398
:103C2000EC01A62E4A01022F0E948320AC015527E9
:103C30004B32510521F04D32510551F40068AA94E0
:103C400011F480E067C0CE010E94832097FDF9CF78
:103C5000102F1D7F302F307301F58033F1F4FF24D6
:103C6000FA94FA0C09F442C0CE010E94832097FD19
:103C70003DC0382F3F7D383551F41264AA94AA9480
:103C8000A9F1CE010E94832097FF07C02FC006FF35
:103C900002C0126001C01261AF2CC12CD12C760180
:103CA00020ED280F283080F014FF04C0BE010E94D0
:103CB000C12019C02A3040F016FFF8CF2F7D3FEE0B
:103CC000320F363098F72750412FC701B6010E94B6
:103CD000CC1D6B017C011260AA9459F0CE010E94A8
:103CE000832097FFDDCF11FD04C0ABCFC12CD12CB9
:103CF000760117FF08C0F094E094D094C094C11CE2
:103D0000D11CE11CF11C212FB701A601C4010E94A6
:103D1000C01D81E0DF91CF911F910F91FF90EF9037
:103D2000DF90CF90AF909F908F900895A1E2B0E088
:103D3000ECE9FEE10C94DF205C017A018E010F5F5B
:103D40001F4F680180E2D8011D928A95E9F7F501BD
:103D5000738040E050E0812CB0E0912C81E090E055
:103D6000F90173FCA59173FEA1918F017A2F9F0138
:103D7000A11103C080E090E07DC0AE3519F441157B
:103D8000510559F1E92DF0E0E417F5073CF4AD35A4
:103D900069F1AD3219F4BB2319F103C0B11101C0AF
:103DA0008A2EE72FE695E695E69586010E0F111D02
:103DB000F801A72FA7708C0102C0000F111FAA9550
:103DC000E2F7D801B081BA2BB083781559F0781595
:103DD00010F47F5FE6CF7150E4CF9924939403C031
:103DE000B1E001C0B0E04F5F5F4FBACFBB2319F025
:103DF0008E8180628E83911003C09924939415C0A4
:103E0000F601CE018196208120952193E817F907CC
:103E1000D1F7F3CFE114F10429F0D7018C93F70126
:103E200031967F01615001F1912CC50169A30E9477
:103E3000832069A197FD16C0282F269526952695E3
:103E4000F601E20FF11D208130E0AC0147705527EB
:103E500002C0359527954A95E2F720FDDBCFB501E5
:103E60000E94C120911086CFE114F10411F0D70116
:103E70001C92C801A196EDE00C94FB204F925F923A
:103E80007F928F929F92AF92BF92CF92DF92EF92EA
:103E9000FF920F931F93CF93DF931F92CDB7DEB79F
:103EA0008C012B017A01FC0117821682A12CF801EA
:103EB000D380F201D3FC8591D3FE8191382F2F015D
:103EC000882309F4FCC090E039830E946C1D39817D
:103ED000892B21F0C8010E94EC1DE9CF353241F455
:103EE000F201D3FC3591D3FE31912F01353269F4C3
:103EF000C80139830E948320398197FDDEC03817BD
:103F0000B1F2B8010E94C120DAC03A3241F4D3FCC8
:103F10003591D3FE31912F01BB24B39401C0B12C54
:103F2000712C20ED230F2A3090F4FB2DF260BF2E70
:103F3000672D70E080E090E040E20E94CC1D762E7C
:103F4000F201D3FC3591D3FE31912F01EACFB1FEBE
:103F500003C0711003C0B3C077247A94383619F0C7
:103F60003C3661F014C0F201D3FC3591D3FE31919F
:103F70002F01383661F4FB2DF860BF2E8B2D846045
:103F8000B82EF201D3FC3591D3FE31912F013323AA
:103F900009F495C0632F70E089ED94E039830E94A5
:103FA00078203981892B09F48AC0B0FC07C0F70159
:103FB000C080D180C70102967C0102C0C12CD12CE7
:103FC0003E3651F4F8014681578160E070E02B2DB8
:103FD000C6010E94C01D6BCF3336A1F4B1FC02C0F4
:103FE00077247394C8010E94832097FD66C0C11492
:103FF000D10429F0F6018083C60101966C017A9400
:1040000089F757C03B3559F49201A601672DC801C5
:104010000E94961E2C01009709F04BC045C0C801B4
:1040200039830E94EC1D398197FD47C03F3669F105
:1040300028F4343631F1393679F12BC0333769F051
:104040003537F9F026C0C114D10429F0F601808279
:10405000C60101966C017A9471F0C8010E94832018
:104060004C0197FD08C00E946C1D892B61F3B801BB
:10407000C4010E94C120C114D104D9F0F6011082FC
:1040800018C0FB2DF062BF2E07C08B2D8061B82EAB
:1040900003C09B2D9064B92E2B2DA601672DC8015E
:1040A0000E94051E811105C0F8018381807329F4E7
:1040B00006C0B0FCFCCEA394FACEAA2019F08A2D3B
:1040C00090E002C08FEF9FEF0F90DF91CF911F9193
:1040D0000F91FF90EF90DF90CF90BF90AF909F90A7
:1040E0008F907F905F904F9008959927882708952B
:1040F000FC010590061621F00020D9F7C0010895B3
:104100003197CF010895CF93DF93EC012B8120FFEE
:1041100033C026FF0AC02F7B2B838E819F8101969F
:104120009F838E838A8190E029C022FF0FC0E8819F
:10413000F9818081992787FD9095009719F4206275
:104140002B831AC03196F983E8830EC0EA85FB857C
:10415000099597FF09C02B81019611F480E101C0F8
:1041600080E2822B8B8308C02E813F812F5F3F4FDF
:104170003F832E83992702C08FEF9FEFDF91CF916E
:104180000895FB01238120FF12C026FD10C08F3F40
:104190003FEF930761F082832F7D20642383268184
:1041A00037812150310937832683992708958FEF6E
:1041B0009FEF08952F923F924F925F926F927F925E
:1041C0008F929F92AF92BF92CF92DF92EF92FF9227
:1041D0000F931F93CF93DF93CDB7DEB7CA1BDB0BD3
:1041E0000FB6F894DEBF0FBECDBF09942A88398878
:1041F00048885F846E847D848C849B84AA84B9847F
:10420000C884DF80EE80FD800C811B81AA81B9818A
:10421000CE0FD11D0FB6F894DEBF0FBECDBFED019E
:064220000895F894FFCFA1
:10422600000066038000256C78202564256E002535
:104236006C78202564202564256E0025642025647D
:10424600202564256E0050524F4E544F0050524F59
:104256004E544F2D524550454154004C472D524126
:1042660057004C47005243352D52415700524336B2
:104276002D524157004E45432D524157004E45435E
:1042860000534F4E592D5241570050414E41534F06
:104296004E49432D524157004A56432D524157002D
:1042A60053414D53554E472D524157005748594E8D
:1042B6005445522D524157004149574152435435B6
:1042C600303100444953482D52415700534841521A
:1042D600502D5241570053484152500044454E4FCD
:1042E6004E2D5241570000000000D61342155813B8
:1042F60071136313B4130D0A006E616E00696E6666
:08430600006F7666002E000036
:107E0000112484B714BE81FFF0D085E080938100F7
:107E100082E08093C00088E18093C10086E0809377
:107E2000C20080E18093C4008EE0C9D0259A86E02C
:107E300020E33CEF91E0309385002093840096BBD3
:107E4000B09BFECF1D9AA8958150A9F7CC24DD24C4
:107E500088248394B5E0AB2EA1E19A2EF3E0BF2EE7
:107E6000A2D0813461F49FD0082FAFD0023811F036
:107E7000013811F484E001C083E08DD089C08234E0
:107E800011F484E103C0853419F485E0A6D080C0E4
:107E9000853579F488D0E82EFF2485D0082F10E0AE
:107EA000102F00270E291F29000F111F8ED06801E7
:107EB0006FC0863521F484E090D080E0DECF843638
:107EC00009F040C070D06FD0082F6DD080E0C81688
:107ED00080E7D80618F4F601B7BEE895C0E0D1E017
:107EE00062D089930C17E1F7F0E0CF16F0E7DF06D8
:107EF00018F0F601B7BEE89568D007B600FCFDCFD4
:107F0000A601A0E0B1E02C9130E011968C91119780
:107F100090E0982F8827822B932B1296FA010C0160
:107F200087BEE89511244E5F5F4FF1E0A038BF0790
:107F300051F7F601A7BEE89507B600FCFDCF97BE46
:107F4000E89526C08437B1F42ED02DD0F82E2BD052
:107F50003CD0F601EF2C8F010F5F1F4F84911BD097
:107F6000EA94F801C1F70894C11CD11CFA94CF0C13
:107F7000D11C0EC0853739F428D08EE10CD085E9AC
:107F80000AD08FE07ACF813511F488E018D01DD067
:107F900080E101D065CF982F8091C00085FFFCCF94
:107FA0009093C60008958091C00087FFFCCF809118
:107FB000C00084FD01C0A8958091C6000895E0E648
:107FC000F0E098E1908380830895EDDF803219F02E
:107FD00088E0F5DFFFCF84E1DECF1F93182FE3DFCA
:107FE0001150E9F7F2DF1F91089580E0E8DFEE27F6
:047FF000FF270994CA
:027FFE00040479
:0400000300007E007B
:00000001FF
